:100000000C9407020C942F020C942F020C94EE0413
:100010000C94EE040C94EE040C942F020C942F021A
:100020000C942F020C942F020C942F020C942F028C
:100030000C942F020C942F020C942F020C942F027C
:100040000C94A4040C942F020C947E050C94BD0512
:100050000C9418060C942F020C942F020C942F026F
:100060000C942F020C942F020152656C2E20616CAF
:10007000746974756465000000000000006D000084
:1000800000000000010102566172696F000000006B
:1000900000000000000000000000006D2F73000051
:1000A000000001010000000000000000000000004E
:1000B0000000000000000000000000000000000040
:1000C0000000014361706163697479000000000001
:1000D000000000000000006D416800000000040006
:1000E0000243757272656E7400000000000000002B
:1000F0000000000000410000000000000101035664
:100100006F6C746167652031000000000000000022
:1001100000000056000000000000010104566F6C52
:1001200074616765203200000000000000000000DC
:1001300000560000000000000101054D61696E20BD
:10014000766F6C7461676500000000000000005667
:1001500000000000000001010643656C6C203120A6
:10016000766F6C7461676500000000000056000047
:100170000000000001020743656C6C203220766F9E
:100180006C7461676500000000000056000000000C
:10019000000001020843656C6C203320766F6C749C
:1001A00061676500000000000056000000000000CC
:1001B00001020943656C6C203420766F6C746167B2
:1001C0006500000000000056000000000000010271
:1001D0000A43656C6C203520766F6C74616765002E
:1001E00000000000005600000000000001020B4368
:1001F000656C6C203620766F6C746167650000005A
:100200000000005600000000000001020C52656C66
:100210002E20616C74697475646500000000000034
:10022000006D00000000000001010D566172696F51
:100230000000000000000000000000000000006D51
:100240002F730000000001010E4675656C2070657B
:100250007263656E7400000000000000002500005D
:100260000000000001000F4675656C0000000000F2
:1002700000000000000000000000006D6C000000A5
:10028000000004011054656D7065726174757265CB
:10029000203100000000000000B04300000000001A
:1002A00001001154656D706572617475726520325C
:1002B00000000000000000B043000000000001004A
:1002C0001252504D0000000000000000000000002D
:1002D00000000000002F6D696E00000004000000A7
:1002E000000000000000000000000000000000000E
:1002F00000000000000000000000000001436170E9
:1003000061636974790000000000000000000000D3
:10031000006D4168000000000400024375727265C0
:100320006E740000000000000000000000000041AA
:100330000000000000000101034D61696E20766F2E
:100340006C7461676500000000000000005600004A
:10035000000000000101044553432054656D702ED8
:100360000000000000000000000000B0430000009A
:10037000000001000552504D000000000000000088
:100380000000000000000000002F6D696E000000FA
:100390000400000000000000000000000000000059
:1003A000000000000000000000000000000000004D
:1003B00000000000240027002A00000000080002BE
:1003C000010000030407000000000000000000001E
:1003D0000000250028002B0000000000230026005C
:1003E00029000404040404040404020202020202B8
:1003F00003030303030301020408102040800102E9
:1004000004081020010204081020A5169B161124D0
:100410001FBECFEFD8E0DEBFCDBF23E0A6E6B1E040
:1004200001C01D92AE30B207E1F711E0A0E0B1E0EB
:10043000E2E9F7E302C005900D92A636B107D9F7BD
:1004400012E0C6E0D2E004C02197FE010E943618F7
:10045000C530D107C9F70E9490080C94BC1B0C94BE
:100460000000CF92DF92EF92FF920F931F93CF93F2
:10047000DF936C017A018B01C0E0D0E0CE15DF057F
:1004800089F0D8016D918D01D601ED91FC9101901B
:10049000F081E02DC6010995892B11F47E0102C07F
:1004A0002196ECCFC701DF91CF911F910F91FF9063
:1004B000EF90DF90CF9008953FB7F8948091B0010E
:1004C0009091B101A091B201B091B30126B5A89B62
:1004D00005C02F3F19F00196A11DB11D3FBFBA2FD6
:1004E000A92F982F8827820F911DA11DB11DBC0136
:1004F000CD0142E0660F771F881F991F4A95D1F7FB
:1005000008952091B6013091B7012817390771F489
:100510009091B4018091B501981741F0E091B40138
:10052000F0E0E559FE4F808190E008958FEF9FEF56
:10053000089508951F93CF93DF93DC015C962D916E
:100540003C915D972115310539F481E090E01396D7
:100550009C938E9312973DC05196ED91FC915297CA
:1005600050969C915097892F80951FB75E964C911D
:100570005E9741FB772770F941FD6095F8944081C3
:10058000772311F0492B01C048234083E9012197CB
:10059000F1F748E0508160FF02C0592B01C0582399
:1005A0005083E9012197F1F76695415099F7772338
:1005B00021F090818923808303C08081982B9083D0
:1005C0001FBF5C968D919C915D970197F1F721E09B
:1005D00030E0C901DF91CF911F9108952091B601BC
:1005E0003091B7012817390771F48091B501209136
:1005F000B40190E0805C9F4F821B910960E470E041
:100600000E942218089580E090E008952091B6019C
:100610003091B70128173907B9F49091B40180914E
:10062000B501981789F0E091B401F0E0E559FE4F6B
:1006300080812091B40130E02F5F3F4F2F7333272B
:100640002093B40190E008958FEF9FEF08951F93DA
:10065000CF93DF93F894EC01CA57DF4F2881203401
:1006600000F5DC01AE57BF4F1C9111965C911197BC
:1006700070E0411103C020E030E002C020E031E032
:10068000622B732BE12FF52F7183608332962881C3
:100690002F5F2883EA17FB0710F0FC013296ED93D9
:1006A000FC93FC01E057FF4F8081811108C081E07D
:1006B00080838091C1008F7688628093C100789496
:1006C000DF91CF911F910895FC01E157FF4F2081E9
:1006D000222301F1F894A0916901B0916A01A35716
:1006E000BF4F0D90BC91A02D4C91208121502083B3
:1006F0003297208131812F5F3F4FBC0165577F4F7B
:100700002617370718F09C0129573F4F3183208364
:10071000789401C040E0842F0895089508950E94C0
:10072000791B90E0FC01E654FC4F3491FC01EA5047
:10073000FC4F2491FC01EE51FC4FE491EE2309F4AF
:100740003BC0332339F1333091F038F43130A9F024
:10075000323001F584B58F7D12C0373091F03830DA
:10076000A1F03430B9F4809180008F7D03C0809176
:1007700080008F77809380000DC084B58F7784BD13
:1007800009C08091B0008F7703C08091B0008F7D49
:100790008093B000F0E0EE0FFF1FE253FC4FA591F5
:1007A000B4918FB7F894EC91611103C020952E237A
:1007B00001C02E2B2C938FBF0895CF93DF9390E031
:1007C000FC01EA50FC4F2491FC01EE51FC4F849156
:1007D000882361F190E0880F991FFC01E055FC4FE0
:1007E000C591D491FC01E253FC4FA591B4916111E4
:1007F00009C09FB7F8948881209582238883EC9163
:100800002E230BC0623061F49FB7F8943881822F99
:10081000809583238883EC912E2B2C939FBF06C059
:100820008FB7F894E8812E2B28838FBFDF91CF916B
:1008300008951092C0008CE18093C10086E38093FC
:10084000C2001092C50086E68093C40062E080E09A
:100850000E94DD0362E081E00C94DD03CF93DF931F
:10086000EC010E941904FE01329680E8DF011D921E
:100870008A95E9F7DE01AE57BF4F1196FC93EE93D0
:1008800012961196FC93EE93EC57FF4F108231961F
:10089000108211821282138217961196FC93EE93A6
:1008A0001296ED93FC933896108231961082D09375
:1008B0006A01C0936901DF91CF9108958F929F9251
:1008C000AF92BF92CF92DF92EF92FF926B017C01C9
:1008D0000E945C024B015C01C114D104E104F104EB
:1008E000F1F00E945C02DC01CB0188199909AA0988
:1008F000BB09883E9340A105B10570F321E0C21AFF
:10090000D108E108F10888EE880E83E0981EA11C4A
:10091000B11CC114D104E104F10419F7DDCFFF903B
:10092000EF90DF90CF90BF90AF909F908F90089501
:100930002FB7F8946091AC017091AD018091AE0138
:100940009091AF012FBF08951F920F920FB60F9293
:1009500011242F933F938F939F93AF93BF938091D5
:10096000AC019091AD01A091AE01B091AF01309179
:10097000AB0123E0230F2D3720F40196A11DB11DFB
:1009800005C026E8230F0296A11DB11D2093AB01DF
:100990008093AC019093AD01A093AE01B093AF01F1
:1009A0008091B0019091B101A091B201B091B301D9
:1009B0000196A11DB11D8093B0019093B101A09348
:1009C000B201B093B301BF91AF919F918F913F91CD
:1009D0002F910F900FBE0F901F9018951F920F929E
:1009E0000FB60F9211242F933F934F935F936F9302
:1009F0007F938F939F93AF93BF93EF93FF93E09178
:100A0000B601F091B701309709F451C0968DA685D3
:100A1000B785858591FF04C09C91892329F447C03F
:100A20009C91892309F043C0A389B4899C9185894D
:100A3000809589238C93868997890197F1F7608D3A
:100A4000718DA685B785558538E020E0CB010197EB
:100A5000F1F7822F90E095958795282F4C914523AB
:100A600009F02068315091F7868D81FD20958091A5
:100A7000B50190E001968F7399273091B401381732
:100A800049F0A091B501B0E0A559BE4F2C938093D9
:100A9000B50103C0868D8160868F828D938D01970D
:100AA000F1F7A389B4899C918589892B8C93FF9157
:100AB000EF91BF91AF919F918F917F916F915F91D6
:100AC0004F913F912F910F900FBE0F901F9018954F
:100AD000E091B601F091B701E817F90769F4A3892D
:100AE000B4899C918589809589238C931092B70154
:100AF0001092B60181E0089580E008951F920F9250
:100B00000FB60F9211242F933F938F939F93AF9320
:100B1000BF93EF93FF939091C600903731F0903BD5
:100B200021F0903D11F0903ED9F42091690130916F
:100B30006A01F901E557FF4FA081B1819C93D9016A
:100B4000A157BF4F8C918F5F8C93808191810196CB
:100B50008E179F0718F0C90189579F4F9183808393
:100B6000FF91EF91BF91AF919F918F913F912F9105
:100B70000F900FBE0F901F9018951F920F920FB6F7
:100B80000F9211242F933F934F935F938F939F93D3
:100B9000EF93FF938091690190916A01FC01EA57FC
:100BA000FF4F2081222351F132970190F081E02DF7
:100BB000208131818091C10030FF02C0816001C07D
:100BC0008E7F8093C1002093C600209169013091EF
:100BD0006A01F901EA57FF4F808181508083329783
:100BE000808191810296A9014E575F4F8417950726
:100BF00010F0C9010296918380830DC08091C100DD
:100C00008F7D80648093C100E0916901F0916A0159
:100C1000E057FF4F1082FF91EF919F918F915F916D
:100C20004F913F912F910F900FBE0F901F901895ED
:100C30001F920F920FB60F9211242F933F938F9311
:100C40009F93EF93FF93E1ECF0E08081877B8069D5
:100C500080838091690190916A019C0129573F4FDF
:100C6000FC01E557FF4F3183208332963183208387
:100C700032961082FF91EF919F918F913F912F912A
:100C80000F900FBE0F901F901895EF92FF920F9349
:100C90001F93CF93DF93CDB7DEB76E970FB6F8945F
:100CA000DEBF0FBECDBF8C017A01FC0112828FEF37
:100CB0009FEFDC0183839483A583B683138E148E08
:100CC000158E168E178E4EE1469FC001479F900DE0
:100CD0001124B901680F791F4EE150E0CE01019651
:100CE0000E94B31B8D8DF801858F89818283E11469
:100CF000F10451F0F70180819181A281B381F80163
:100D000083839483A583B683A801495F5F4FFE0167
:100D10003296DA0190E08191811105C0392FF801F6
:100D2000938F232F0FC0933119F09F5F8D93F3CFD3
:100D300033E1F5CF8331910594F4FA01E80FF91FFF
:100D400070832F5F622F631BE1E0F0E0EC0FFD1F6B
:100D5000E60FF11D7589822F90E07111EBCFF8013C
:100D6000648FFA01E80FF91F10828E8D813021F017
:100D7000823029F480E401C080E2F801868FF80116
:100D8000858D843091F030F4882361F0813079F4DE
:100D900083E00BC0883041F0893031F0853039F480
:100DA00084E003C082E001C085E0F801878F6E9681
:100DB0000FB6F894DEBF0FBECDBFDF91CF911F916C
:100DC0000F91FF90EF900895CF92DF92FF920F93D3
:100DD0001F93CF93DF93CDB7DEB76E970FB6F8941E
:100DE000DEBF0FBECDBF8C016B0130E2F32EEAE116
:100DF000F2E0DF018F2D1D928A95E9F740E250E085
:100E000060E270E08AE392E00E949A1B1092F70180
:100E100043E150E0B8018CED91E00E94A11BF80184
:100E200001900020E9F73197E01BF10BE093F0010E
:100E3000D092F201C092F101E8EFF1E0DF011D92E2
:100E4000FA94E9F7F12C00E010E06091F101709163
:100E5000F201600F711F4EE150E0CE0101960E9439
:100E6000B31BE981EE23B1F0E03220F4F0E0E95267
:100E7000FE4FF1A28091F5019091F60101969093B9
:100E8000F6018093F501025E1F4FF394003CB3E03E
:100E90001B07D9F60091F5011091F601013CEFE135
:100EA0001E0730F4C801880F991F880F991F02C0D0
:100EB0008FEF9FEF0E944C1AFC0120E030E04FEFD3
:100EC0005FEFBA012017310739F0419351936193D5
:100ED00071932F5F3F4FF6CF8093F3019093F4010E
:100EE00081E990E00E944C1A21E9DC011D922A95CB
:100EF000E9F72FE031E0FC01318320839093190260
:100F0000809318020E942E0460ED77E080E090E06C
:100F10000E945E046E960FB6F894DEBF0FBECDBF82
:100F2000DF91CF911F910F91FF90DF90CF900895A7
:100F30008091D2019091D301892B31F18091B6013A
:100F40009091B70121E0883B9207F1F0009711F0F2
:100F50000E9468058091D6018E7F8093D601109201
:100F6000B5011092B40188EB91E09093B7018093A2
:100F7000B601E091CB01F091CC0190818091CD013F
:100F8000892B808381E0089580E00895CF92DF92DD
:100F9000EF92FF92CF93DF93C82F0E94980788EBC0
:100FA00091E00E94EE02181619062CF488EB91E0ED
:100FB0000E940603F4CF60E888EB91E00E949A0259
:100FC00061E070E080E090E00E945E046C2F88EBAE
:100FD00091E00E949A026C2F88EB91E00E949A02A5
:100FE00061E070E080E090E00E945E0488EB91E0B8
:100FF0000E9406030E9498046B017C010E949804E1
:10100000D0E088EB91E00E94EE021816190674F405
:1010100088EB91E00E940603ED2FF0E0E352FD4FD4
:101020008083DF5F0E9498046B017C010E9498041A
:10103000DC01CB018C199D09AE09BF0984369105ED
:10104000A105B10508F03FC0DD32D8F2EDEDF2E0C8
:1010500080E09191890F93E0E930F907D1F7909101
:10106000DD029C3781F59091DE029C132CC090919B
:1010700008039D3741F590910903981324C0CC389B
:10108000F1F028F4C938B1F0CA3879F01FC0CD3872
:1010900039F0CE38D9F48091E002803EB9F013C027
:1010A0008091E002803D91F00EC08091E002803A94
:1010B00069F009C08091E002803941F004C080915C
:1010C000E002803C19F080E090E002C08DED92E0FB
:1010D000DF91CF91FF90EF90DF90CF9008950E9425
:1010E000C60721E0892B09F420E0822F0895209182
:1010F000F3013091F4012115310589F0803278F443
:10110000E82FF0E0E952FE4F81A1F90194E0899FB8
:10111000E00DF11D11244083518362837383089590
:10112000CF93DF93CDB7DEB7A0970FB6F894DEBFAD
:101130000FBECDBF789484B5826084BD84B58160D4
:1011400084BD85B5826085BD85B5816085BD809192
:101150006E00816080936E0010928100809181000A
:101160008260809381008091810081608093810002
:10117000809180008160809380008091B1008460C4
:101180008093B1008091B00081608093B000809125
:101190007A00846080937A0080917A0082608093E4
:1011A0007A0080917A00816080937A0080917A0041
:1011B000806880937A001092C10061E08DE00E9407
:1011C000DD0368EB7BE080E090E00E945E0460E07D
:1011D0008AE00E94DD0361E08BE00E94DD03109253
:1011E000D3011092D2011092D1011092D00110922D
:1011F000CF011092CE018DEC90E09093D5018093B9
:10120000D4019091C401963108F057C025E530E033
:101210003093CF012093CE012BEC30E03093D101FD
:101220002093D00120E930E03093D3012093D20104
:1012300020916800983050F031E09E3008F430E0A2
:1012400081E001C0880F3A95EAF701C084E0822B63
:1012500080936800983038F09E3040F0963148F026
:1012600020E030E008C02DE630E005C02BE630E09D
:1012700002C02CE630E03093CC012093CB019830B3
:1012800030F481E001C0880F9A95EAF70EC0292F4B
:1012900030E09E3018F42850310902C02E50310938
:1012A00081E001C0880F2A95EAF78093CD018091F3
:1012B000D4019091D5010197F1F70E9498076AE057
:1012C00070E080E090E00E945E040E9498078091A8
:1012D000680181114DC061E08DE00E9491038CE8AE
:1012E0000E946F08882361F08CE8809368018091E8
:1012F000F001811132C06CEF72E089E291E02BC005
:101300008EE80E946F08811128C08DE80E946F0846
:10131000882361F08DE8809368018091F00181114C
:101320001CC062EC70E082E391E015C08AE80E9484
:101330006F08811112C089E80E946F08882369F044
:1013400089E8809368018091F001811106C068E608
:1013500070E08BE391E00E94E40660E08DE00E9483
:10136000910364EF71E080E090E00E945E04AFCFF3
:1013700060E08DE00E9491039CE088E10FB6F89454
:10138000A895809360000FBE9093600060E3E62E06
:1013900065E7F62E8CE192E092E0892E881A54E6F9
:1013A000C52ED12C90906801892D0E94C6078C0112
:1013B000009709F494C710925F0210925E02109297
:1013C0006002109261021092620210926302109207
:1013D00064021092650210926602109267021092E7
:1013E00068021092690210926A0210926B021092C7
:1013F0006C0210926D0210926E0210926F021092A7
:101400007002109271021092720210927302109286
:101410007402109275021092760210927702109266
:1014200078021092790210927A0210927B02109246
:101430007C0210927D0210927E0210927F02109226
:101440008002109281021092820210928302109206
:1014500084021092850210928602109287021092E6
:1014600088021092890210928A0210928B021092C6
:101470008C0210928D0210928E0210928F021092A6
:101480009002109291021092920210929302109286
:101490009402109295021092960210929702109266
:1014A00098021092990210929A0210929B02109246
:1014B0009C0210929D0210929E0210929F02109226
:1014C000A0021092A1021092A2021092A302109206
:1014D000A4021092A5021092A6021092A7021092E6
:1014E000A8021092A9021092AA021092AB021092C6
:1014F000AD021092AC021092AE021092AF021092A6
:10150000B0021092B1021092B2021092B402109284
:10151000B3021092B5021092B6021092B702109266
:10152000B9021092B8021092BB021092BA02109245
:10153000BD021092BC021092BE021092BF02109225
:10154000C0021092C1021092C2021092C302109205
:10155000C4021092C5021092C602DC0111968C9151
:101560008C3809F4A8C440F4893809F473C48A3863
:1015700009F474C30C9493148D3809F410C28E3896
:1015800011F00C949314F80181A190E0982F882712
:1015900020A1822B4AE0489F9001499F300D1124E1
:1015A00030935F0220935E02658D70E0762F662790
:1015B000848D682B80E090E00E9451196093600256
:1015C000709361028093620290936302D8015596F2
:1015D0006C91559770E0762F662754968C91682B06
:1015E00080E090E00E94511960936402709365025C
:1015F0008093660290936702F801678970E0762F06
:1016000066278689682B80E090E00E9451196093DC
:1016100068027093690280936A0290936B02D8010A
:101620005F966C915F9770E0762F66275E968C913F
:10163000682B80E090E00E94511960936C027093D7
:101640006D0280936E0290936F02F801668170E0E4
:1016500080E090E00E94531920E030E048EC52E432
:101660000E94A9189B01AC010E943D18609374026E
:10167000709375028093760290937702D801179643
:101680006C9170E080E090E00E94531920E030E01F
:1016900048EC52E40E94A9189B01AC010E943D183D
:1016A000609378027093790280937A0290937B0220
:1016B000F801608570E080E090E00E94531920E01E
:1016C00030E048EC52E40E94A9189B01AC010E9452
:1016D0003D1860937C0270937D0280937E0290930C
:1016E0007F02D80119966C9170E080E090E00E9432
:1016F000531920E030E048EC52E40E94A9189B0105
:10170000AC010E943D186093800270938102809327
:10171000820290938302F801628570E080E090E09D
:101720000E94531920E030E048EC52E40E94A918CE
:101730009B01AC010E943D18609384027093850266
:101740008093860290938702D8011B966C9170E07B
:1017500080E090E00E94531920E030E048EC52E431
:101760000E94A9189B01AC010E943D186093880259
:101770007093890280938A0290938B02F8016485AA
:1017800070E080E090E00E94531920E030E048ECE7
:1017900052E40E94A9189B01AC010E943D1860937D
:1017A0008C0270938D0280938E0290938F02D801E9
:1017B0001D966C9170E080E090E00E94531920E04B
:1017C00030E048EC52E40E94A9189B01AC010E9451
:1017D0003D186093900270939102809392029093CF
:1017E0009302F801668570E080E090E00E94531952
:1017F00020E030E048EC52E40E94A9189B01AC01C3
:101800000E943D1860939402709395028093960213
:1018100090939702D8011F966C9170E080E090E061
:101820000E94531920E030E048EC52E40E94A918CD
:101830009B01AC010E943D1860939802709399023D
:1018400080939A0290939B02F801608970E080E097
:1018500090E00E94531920E030E048EC52E40E94EE
:10186000A9189B01AC010E943D1860939C027093E3
:101870009D0280939E0290939F02D80151966C9195
:1018800070E080E090E00E94531920E030E048ECE6
:1018900052E40E94A9189B01AC010E943D1860937C
:1018A000A0027093A1028093A2029093A302F80178
:1018B000628970E080E090E00E94531920E030E0FF
:1018C00048EC52E40E94A9189B01AC010E943D180B
:1018D0006093A4027093A5028093A6029093A7023E
:1018E000D80153966C9170E080E090E00E9453190B
:1018F00020E030E048EC52E40E94A9189B01AC01C2
:101900000E943D186093A8027093A9028093AA02D6
:101910009093AB02F801838D90E0982F8827228D59
:10192000822B845F91409093AD028093AC0263A1BF
:1019300070E0762F662782A1682B6133F5E77F0779
:1019400018F06053754704C09701261B370BB90187
:1019500080E090E00E9451192AE037ED43E25CE319
:101960000E94DF196093AE027093AF028093B002C1
:101970009093B102D80158968C91589784518093D6
:10198000B50259968C91599784518093B6029696D8
:101990008C9190E0382F2227822B932B54C1F80191
:1019A00081A190E0982F882720A1822B4AE0489FB0
:1019B0009001499F300D112430935F0220935E0205
:1019C000658D70E0762F6627848D682B80E090E02F
:1019D0000E945119609360027093610280936202C9
:1019E00090936302D8011D966C911D9770E0762F3D
:1019F00066271C968C91682B80E090E00E9451191C
:101A0000609364027093650280936602909367020C
:101A1000F801678570E0762F66278685682B80E061
:101A200090E00E945119609368027093690280935C
:101A30006A0290936B02D8015F966C915F9770E099
:101A4000762F66275E968C91682B80E090E00E944E
:101A5000511960936C0270936D0280936E029093A3
:101A60006F02F801668170E080E090E00E945319F7
:101A700020E030E048EC52E40E94A9189B01AC0140
:101A80000E943D18609374027093750280937602F1
:101A900090937702D80117966C9170E080E090E007
:101AA0000E94531920E030E048EC52E40E94A9184B
:101AB0009B01AC010E943D186093780270937902FB
:101AC00080937A0290937B02F801608570E080E059
:101AD00090E00E94531920E030E048EC52E40E946C
:101AE000A9189B01AC010E943D1860937C02709381
:101AF0007D0280937E0290937F02D80119966C91AB
:101B000070E080E090E00E94531920E030E048EC63
:101B100052E40E94A9189B01AC010E943D186093F9
:101B20008002709381028093820290938302F80175
:101B3000628570E080E090E00E94531920E030E080
:101B400048EC52E40E94A9189B01AC010E943D1888
:101B5000609384027093850280938602909387023B
:101B6000D8011B966C9170E080E090E00E945319C0
:101B700020E030E048EC52E40E94A9189B01AC013F
:101B80000E943D18609388027093890280938A02B4
:101B900090938B02F801808D90E0982F88272789F9
:101BA000822B845F91409093AD028093AC02628D52
:101BB00070E0762F6627818D682B6133F5E77F070C
:101BC00018F06053754704C09701261B370BB90105
:101BD00080E090E00E9451192AE037ED43E25CE397
:101BE0000E94DF196093AE027093AF028093B0023F
:101BF0009093B102D80152968C9152978093B20281
:101C000054968C91549790E0982F882753962C9156
:101C10005397822B9093B4028093B30250968C9189
:101C2000509784518093B50251968C91519784516D
:101C30008093B60256968C91569790E0982F8827FD
:101C400055962C91822B4AE0489F9001499F300D78
:101C500011243093B9022093B80265C6F801868931
:101C600090E0982F88272589822B845F914090935C
:101C7000AD028093AC02608D70E0762F6627878975
:101C8000682B6133F5E77F0718F06053754704C090
:101C90009701261B370BB90180E090E00E94511993
:101CA0002AE037ED43E25CE30E94DF196093AE0265
:101CB0007093AF028093B0029093B102D80118964E
:101CC0008C91189790E0982F882717962C9117974A
:101CD000822B9093BB028093BA0254968C915497B6
:101CE00090E0982F882751962C915197822B9093B2
:101CF000BD028093BC0216968C911697880F809334
:101D0000BE021B96AC901B97B12CBA2CAA241A9633
:101D10008C91A82AC501B6010E940E183B017724B8
:101D2000B301072C000C880B990B0E9453191B015F
:101D30002C014CE993014203B001439F700D112423
:101D40006A0D7B1D80E090E00E94511920E030E098
:101D500040E752E40E94A9189B01AC01C201B10105
:101D60000E943D182B013C01D8011D966C911D97D6
:101D700070E0762F66271C968C91682B80E090E0AF
:101D80000E94511920E030E041E655E40E94A91874
:101D90009B01AC01C301B2010E943D186093BF02D8
:101DA0007093C0028093C1029093C202F801A08890
:101DB000B12CBA2CAA248785A82AC501B6010E9495
:101DC0000E183B017724B301072C000C880B990BEC
:101DD0000E9453191B012C014CE993014203B001ED
:101DE000439F700D11246A0D7B1D80E090E00E94DE
:101DF000511920E030E040E752E40E94A9189B010D
:101E0000AC01C201B1010E943D182B013C01D80177
:101E100052966C91529770E0762F662751968C916E
:101E2000682B80E090E00E94511920E030E041E60C
:101E300055E40E94A9189B01AC01C301B2010E94A4
:101E40003D186093C3027093C4028093C5029093BF
:101E5000C60269C5F801868190E0982F8827258100
:101E6000822B845F91409093AD028093AC02648595
:101E700070E0762F66278385682B6133F5E77F074F
:101E800018F06053754704C09701261B370BB90142
:101E900080E090E00E9451192AE037ED43E25CE3D4
:101EA0000E94DF196093AE027093AF028093B0027C
:101EB0009093B10238C5D8011B968C911B9790E086
:101EC000982F88271A962C911A97822B7AE0B72E92
:101ED000B89E9001B99E300D112430935F0220937B
:101EE0005E021F966C911F9770E0762F66271E96F4
:101EF0008C91682B80E090E00E9451196093600201
:101F0000709361028093620290936302F80167818B
:101F100070E0762F66278681682B80E090E00E9433
:101F2000511960936C0270936D0280936E029093CE
:101F30006F02D8015A966C915A9770E0762F6627F7
:101F400059968C91682B80E090E00E945119609323
:101F50007002709371028093720290937302F80181
:101F6000838990E0982F88272289822BB89E900140
:101F7000B99E300D11243093B9022093B8028485A4
:101F800084518093B702CFC43EE89312A8C1409118
:101F90005E0250915F0260E070E081E00E9477088D
:101FA000609160027091610280916202909163027F
:101FB0000E941B19AB01BC0182E00E94770860916E
:101FC00064027091650280916602909167020E949E
:101FD0001B19AB01BC0183E00E9477086091680285
:101FE0007091690280916A0290916B020E941B19A4
:101FF000AB01BC0184E00E94770860916C02709193
:102000006D0280916E0290916F020E941B19AB01CC
:10201000BC0185E00E94770820E030E048EC52E403
:1020200060917402709175028091760290917702AE
:102030000E94DF190E941B19AB01BC0186E00E94BF
:10204000770820E030E048EC52E46091780270912B
:10205000790280917A0290917B020E94DF190E949E
:102060001B19AB01BC0187E00E94770820E030E03B
:1020700048EC52E460917C0270917D0280917E0276
:1020800090917F020E94DF190E941B19AB01BC01D5
:1020900088E00E94770820E030E048EC52E460914C
:1020A00080027091810280918202909183020E944D
:1020B000DF190E941B19AB01BC0189E00E9477085F
:1020C00020E030E048EC52E4609184027091850297
:1020D00080918602909187020E94DF190E941B194D
:1020E000AB01BC018AE00E94770820E030E048ECB8
:1020F00052E4609188027091890280918A029091E5
:102100008B020E94DF190E941B19AB01BC018BE0FE
:102110000E94770820E030E048EC52E460918C02A5
:1021200070918D0280918E0290918F020E94DF1932
:102130000E941B19AB01BC018CE00E94770820E0D3
:1021400030E048EC52E460919002709191028091ED
:102150009202909193020E94DF190E941B19AB0119
:10216000BC018DE00E94770820E030E048EC52E4AA
:1021700060919402709195028091960290919702DD
:102180000E94DF190E941B19AB01BC018EE00E9466
:10219000770820E030E048EC52E4609198027091BA
:1021A000990280919A0290919B020E94DF190E94ED
:1021B0001B19AB01BC018FE00E94770820E030E0E2
:1021C00048EC52E460919C0270919D0280919E02C5
:1021D00090919F020E94DF190E941B19AB01BC0164
:1021E00080E10E94770820E030E048EC52E4609102
:1021F000A0027091A1028091A2029091A3020E947C
:10220000DF190E941B19AB01BC0181E10E94770814
:1022100020E030E048EC52E46091A4027091A50205
:102220008091A6029091A7020E94DF190E941B19BB
:10223000AB01BC0182E10E94770820E030E048EC6D
:1022400052E46091A8027091A9028091AA02909133
:10225000AB020E94DF190E941B19AB01BC0183E194
:102260000E9477088091AC029091AD022AE0289FED
:10227000A001299F500D1124052E000C660B770B31
:1022800084E10E9477086091AE027091AF02809164
:10229000B0029091B1020E941B19AB01BC0185E113
:1022A0000E9477084091B502042E000C550B660B76
:1022B000770B86E10E9477084091B602042E000C4D
:1022C000550B660B770B87E10E9477084091B802A7
:1022D0005091B90260E070E088E10E947708809137
:1022E000180290911902DC01ED91FC910480F581B6
:1022F000E02D0995803B41F4809166019091670142
:1023000097FF18C001960AC0803DA1F48091660134
:1023100090916701181619064CF401979093670184
:102320008093660181E08093000104C081E0809386
:102330005B0234C080910001882381F180916601A5
:1023400090916701892B41F5A6E4B1E0EAE3F2E060
:1023500080E020E29D91992321F0811102C09083B9
:1023600002C0208381E0319631E0A635B30791F7B2
:10237000A6E5B1E0EAE4F2E080E020E29D91992355
:1023800021F0811102C0908302C0208381E0319648
:1023900041E0A636B40791F7109200014090D701B2
:1023A0005090D8016090D9017090DA0186E9480E0A
:1023B000511C611C711C0E949804641575058605EA
:1023C000970508F491C20E9498046093D701709316
:1023D000D8018093D9019093DA0180915B02882320
:1023E00051F18091180290911902DC01ED91FC915C
:1023F0000280F381E02D40E06EE70995809118029C
:1024000090911902DC01ED91FC910280F381E02DA5
:1024100041E061E909958091180290911902DC016F
:10242000ED91FC910280F381E02D41E061E309959B
:1024300010925B0212C210915A02112309F44BC090
:10244000A12E012E000CBB08C5010E94821B892B06
:1024500031F0C5010E94891B182F00E001C001E086
:102460008091180290911902DC01ED91FC9102809B
:10247000F381E02D40E06EE709958091180290917C
:102480001902DC01ED91FC910280F381E02D41E025
:1024900062E009958091180290911902DC01ED919A
:1024A000FC910280F381E02D011102C062E201C0C3
:1024B00063E241E009958091180290911902DC01D4
:1024C000ED91FC910280F381E02D41E0612F0995AF
:1024D00010925A02C2C12091F1013091F2012115EE
:1024E000310509F4BAC16091DB0181E0860F809368
:1024F000DB01611118C010921C021092220210918F
:10250000F001812F880F880F880F80932302412FBD
:1025100050E06CED71E084E292E00E94911B5AE081
:10252000B52EB10E41C160FD34C0669570E080915A
:10253000F5019091F601861797075CF161507109DA
:1025400040E050E0CE0101960E94450610921C0228
:102550008B81809322028C8DB8E08B9FC001112467
:102560009D8D892B8093230280E02AE0280FE8E0EC
:10257000F0E0EC0FFD1FE80FF11D9081992339F079
:102580008F5FE22FF0E0E65EFD4F9083EECFB22E3C
:102590000BC180E480931C0200E010E048E0B42E00
:1025A0008091F7012091F1013091F201682F70E0E4
:1025B0004091F3015091F401E4E08E9F400D511DD4
:1025C0001124CE0101960E9445068C819D81AE8129
:1025D000BF818F3FFFEF9F07AF07BF0709F4C4C05C
:1025E0004B81EB2DF0E05E8D31E03B0D403160F032
:1025F000E65EFD4F252F2F70208322E02B0DE32F69
:10260000F0E0E65EFD4F0BC0232FE65EFD4F30E1AC
:10261000439FB0011124352F3F70432F462B408339
:1026200068A170E030E05430B9F128F4552369F026
:102630005130D9F095C0583009F466C0593009F4CA
:1026400080C0553009F08CC042C0482F4F71B7FD93
:1026500002C080E001C080E8F901E65EFD4F842BF6
:102660009F8D892B808381E07CC0F901E65EFD4F60
:102670008083A9014F5F5F4FE92FEF71B7FD02C063
:1026800080E001C080E8DA01A65EBD4F8E2B9F8DF1
:10269000892B8C9382E065C0A90149525E4FFA01F3
:1026A000ED5BFF4F808331969083A9014E5F5F4FB2
:1026B000EA2FEF71B7FD02C080E001C080E8DA01C7
:1026C000A65EBD4F8E2B9F8D892B8C931BC0A901BD
:1026D00049525E4FFA01ED5BFF4F80833196908344
:1026E000A9014E5F5F4F2D01772457FC7094672C32
:1026F000B7FD02C080E001C080E8FA01E65EFD4F50
:10270000482A408283E02DC0A90149525E4FFA0158
:10271000ED5BFF4F8083319690833196A083A901B2
:102720004D5F5F4FEB2FEF71B7FD02C080E001C03E
:1027300080E8DA01A65EBD4F8E2B9F8D892B8C938E
:102740000DC0A90149525E4FFA01ED5BFF4F808336
:10275000319690833196A0833196B08384E001C096
:1027600080E0B82EB20E02C060E070E08091F70108
:102770008F5F8093F7012091F5013091F60190E091
:102780008217930714F01092F7010F5F1F4F021783
:10279000130754F48B2D90E02AE130E0261B370B11
:1027A000821793070CF4FCCE8EE780931A028FE217
:1027B00080931B0280911C029EEF9B0D892B8093BE
:1027C0001C0289E080931D0284EA80931E0280919E
:1027D0005C0280931F0280915D0280932002109220
:1027E0002102EB2DF0E0ACE1B2E080E027E0982D93
:1027F0009A0F9B1560F49D91892798E087FF03C08D
:10280000880F822701C0880F9150C1F7F0CFE65E94
:10281000FD4F80838091180290911902DC01ED91A7
:10282000FC910280F381E02D40E06EE7099511E014
:10283000B11698F08091180290911902DC01ED9187
:10284000FC91A12FB0E0A65EBD4F0280F381E02D88
:1028500041E06C9109951F5FEBCF80911802909138
:102860001902DC01ED91FC910280F381E02D40E042
:102870006EEF099580913A02882319F10AE312E07C
:102880008091180290911902F80161918F01DC0189
:10289000ED91FC910280F381E02D41E00995B2E0D9
:1028A0000A351B0769F78091180290911902DC0123
:1028B000ED91FC910280F381E02D40E06FEF0995EE
:1028C00013C000E210E08091180290911902DC011F
:1028D000ED91FC910280F381E02D41E060E00995EB
:1028E0000150110981F7DFCFA89561E08DE00E94CA
:1028F00091036AE070E080E090E00E945E0460E096
:102900008DE00E9491036AE070E080E090E00E9418
:102910005E0480E090E0892B11F40C94D2090E94AF
:1029200000000C94CF09BCE89B1239C040915E02B4
:1029300050915F0260E070E081E00E947708609152
:1029400060027091610280916202909163020E9424
:102950001B19AB01BC0182E00E94770860916C02F8
:1029600070916D0280916E0290916F020E941B190E
:10297000AB01BC0183E00E9477084091B702042EAE
:10298000000C550B660B770B84E00E947708409192
:10299000B8025091B90260E070E085E09ECCB915B4
:1029A00008F47CC0E9E89E121FC08091AC029091AF
:1029B000AD022AE0289FA001299F500D1124052E69
:1029C000000C660B770B81E00E9477086091AE02E5
:1029D0007091AF028091B0029091B1020E941B19D8
:1029E000AB01BC0182E079CCFAE89F1278CC8091EF
:1029F000AC029091AD022AE0289FA001299F500DC2
:102A00001124052E000C660B770B81E00E947708DD
:102A10006091AE027091AF028091B0029091B102CC
:102A20000E941B19AB01BC0182E00E947708409113
:102A3000BA025091BB0260E070E083E00E94770828
:102A40004091BC025091BD0260E070E084E00E94C1
:102A500077084091BE0250E060E070E085E00E949F
:102A600077086091BF027091C0028091C10290917D
:102A7000C2020E941B19AB01BC0186E00E947708CC
:102A80006091C3027091C4028091C5029091C60208
:102A90000E941B19AB01BC0187E01FCC2DE89212EC
:102AA00073CA40915E0250915F0260E070E081E085
:102AB0000E947708609160027091610280916202C9
:102AC000909163020E941B19AB01BC0182E00E943D
:102AD000770860916402709165028091660290911E
:102AE00067020E941B19AB01BC0183E00E947708BA
:102AF000609168027091690280916A0290916B0204
:102B00000E941B19AB01BC0184E00E947708609110
:102B10006C0270916D0280916E0290916F020E9422
:102B20001B19AB01BC0185E00E94770820E030E072
:102B300048EC52E4609174027091750280917602C3
:102B4000909177020E94DF190E941B19AB01BC0112
:102B500086E00E94770820E030E048EC52E4609183
:102B600078027091790280917A0290917B020E94A2
:102B7000DF190E941B19AB01BC0187E00E94770896
:102B800020E030E048EC52E460917C0270917D02DC
:102B900080917E0290917F020E94DF190E941B1992
:102BA000AB01BC0188E00E94770820E030E048ECEF
:102BB00052E4609180027091810280918202909132
:102BC00083020E94DF190E941B19AB01BC0189E03E
:102BD0000E94770820E030E048EC52E460918402E3
:102BE0007091850280918602909187020E94DF1980
:102BF0000E941B19AB01BC018AE00E94770820E00B
:102C000030E048EC52E46091880270918902809132
:102C10008A0290918B020E94DF190E941B19AB015E
:102C2000BC018BE00E9477088091AC029091AD02CC
:102C30002AE0289FA001299F500D1124052E000C89
:102C4000660B770B8CE00E9477086091AE02709162
:102C5000AF028091B0029091B1020E941B19AB01AA
:102C6000BC018DE00E9477084091B20250E060E024
:102C700070E08EE00E9477084091B3025091B40258
:102C800060E070E08FE00E9477084091B502042E6A
:102C9000000C550B660B770B80E10E947708409182
:102CA000B602042E000C550B660B770B81E10E94D7
:102CB00077084091B8025091B90260E070E082E17B
:102CC0000E94770840915E0250915F0260E070E0E0
:102CD00081E00E94770860916002709161028091AA
:102CE0006202909163020E941B19AB01BC0182E059
:102CF0000E94770860916C0270916D0280916E0263
:102D000090916F020E941B19AB01BC0185E00E94EB
:102D100077084091B502042E000C550B660B770B1B
:102D200080E10E9477084091B8025091B90260E0BA
:102D300070E082E1D2CA8DE191E09093B901809375
:102D4000B80188EB91E00C9468051092BB011092D9
:102D5000BA0188EE93E0A0E0B0E08093BC019093CC
:102D6000BD01A093BE01B093BF018DE191E09093AE
:102D7000B9018093B8011092CF011092CE01109248
:102D8000D1011092D0011092D3011092D201109271
:102D9000D5011092D4016091D6016E7F6D7F609352
:102DA000D6016695617081E068278BE00E949103EF
:102DB00061E08BE00E94DD03E1E0F4E0E491E09368
:102DC000C801EDEEF3E0E491F0E0EE0FFF1FE253F7
:102DD000FC4F859194919093CA018093C90160E062
:102DE0008AE00E94DD038091D60181FD04C061E08C
:102DF0008AE00E9491038AE08093C401E0E0F4E05D
:102E0000E491E093C501ECEEF3E0E491F0E0EE0F25
:102E1000FF1FE852FC4F859194919093C7018093D6
:102E2000C60110925F0210925E0210926002109230
:102E30006102109262021092630210926402109278
:102E40006502109266021092670210926802109258
:102E5000690210926A0210926B0210926C02109238
:102E60006D0210926E0210926F0210927002109218
:102E700071021092720210927302109274021092F8
:102E800075021092760210927702109278021092D8
:102E9000790210927A0210927B0210927C021092B8
:102EA0007D0210927E0210927F0210928002109298
:102EB0008102109282021092830210928402109278
:102EC0008502109286021092870210928802109258
:102ED000890210928A0210928B0210928C02109238
:102EE0008D0210928E0210928F0210929002109218
:102EF00091021092920210929302109294021092F8
:102F000095021092960210929702109298021092D7
:102F1000990210929A0210929B0210929C021092B7
:102F20009D0210929E0210929F021092A002109297
:102F3000A1021092A2021092A3021092A402109277
:102F4000A5021092A6021092A7021092A802109257
:102F5000A9021092AA021092AB021092AD02109236
:102F6000AC021092AE021092AF021092B002109218
:102F7000B1021092B2021092B4021092B3021092F7
:102F8000B5021092B6021092B7021092B9021092D6
:102F9000B8021092BB021092BA021092BD021092B7
:102FA000BC021092BE021092BF021092C002109298
:102FB000C1021092C2021092C3021092C402109277
:102FC000C5021092C6021092D7011092D801109239
:102FD000D9011092DA011092DB011092F0011092E7
:102FE000F2011092F1011092F4011092F30110928B
:102FF000F6011092F5011092F70110921902109249
:10300000180210925A0210925B0286E780935C02CB
:1030100082E380935D021092DC010895AA1BBB1B22
:1030200051E107C0AA1FBB1FA617B70710F0A61BC8
:10303000B70B881F991F5A95A9F780959095BC01E9
:10304000CD01089597FB072E16F4009407D077FD65
:1030500009D00E940E1807FC05D03EF4909581958A
:103060009F4F0895709561957F4F0895EE0FFF1F54
:103070000590F491E02D09945058BB27AA270E948F
:1030800054180C94A5190E94971938F00E949E19A3
:1030900020F039F49F3F19F426F40C9494190EF49F
:1030A000E095E7FB0C948E19E92F0E94B61958F3AE
:1030B000BA17620773078407950720F079F4A6F51D
:1030C0000C94D8190EF4E0950B2EBA2FA02D0B01FD
:1030D000B90190010C01CA01A0011124FF27591B5D
:1030E00099F0593F50F4503E68F11A16F040A22F63
:1030F000232F342F4427585FF3CF469537952795D4
:10310000A795F0405395C9F77EF41F16BA0B620BD2
:10311000730B840BBAF09150A1F0FF0FBB1F661F19
:10312000771F881FC2F70EC0BA0F621F731F841F5C
:1031300048F4879577956795B795F7959E3F08F082
:10314000B0CF9395880F08F09927EE0F9795879544
:1031500008950E94BD180C94A5190E949E1958F05C
:103160000E94971940F029F45F3F29F00C948E19C2
:1031700051110C94D9190C9494190E94B61968F342
:103180009923B1F3552391F3951B550BBB27AA2720
:1031900062177307840738F09F5F5F4F220F331F5A
:1031A000441FAA1FA9F335D00E2E3AF0E0E832D022
:1031B00091505040E695001CCAF72BD0FE2F29D025
:1031C000660F771F881FBB1F261737074807AB07F7
:1031D000B0E809F0BB0B802DBF01FF2793585F4F6C
:1031E0003AF09E3F510578F00C948E190C94D91941
:1031F0005F3FE4F3983ED4F3869577956795B7954E
:10320000F7959F5FC9F7880F911D9695879597F958
:103210000895E1E0660F771F881FBB1F62177307D1
:103220008407BA0720F0621B730B840BBA0BEE1FE6
:1032300088F7E09508950E9422196894B1110C94C2
:10324000D91908950E94BE1988F09F5798F0B92F98
:103250009927B751B0F0E1F0660F771F881F991FCB
:103260001AF0BA95C9F714C0B13091F00E94D8197C
:10327000B1E008950C94D819672F782F8827B85F8C
:1032800039F0B93FCCF3869577956795B395D9F723
:103290003EF490958095709561957F4F8F4F9F4F2D
:1032A0000895E89409C097FB3EF490958095709539
:1032B00061957F4F8F4F9F4F9923A9F0F92F96E982
:1032C000BB279395F695879577956795B795F111F7
:1032D000F8CFFAF4BB0F11F460FF1BC06F5F7F4F94
:1032E0008F4F9F4F16C0882311F096E911C07723A6
:1032F00021F09EE8872F762F05C0662371F096E8AF
:10330000862F70E060E02AF09A95660F771F881F7D
:10331000DAF7880F9695879597F9089597F99F673B
:1033200080E870E060E008959FEF80EC089500244D
:103330000A941616170618060906089500240A941A
:1033400012161306140605060895092E0394000CA0
:1033500011F4882352F0BB0F40F4BF2B11F460FF2F
:1033600004C06F5F7F4F8F4F9F4F089557FD905858
:10337000440F551F59F05F3F71F04795880F97FB39
:10338000991F61F09F3F79F08795089512161306F3
:103390001406551FF2CF4695F1DF08C01616170622
:1033A0001806991FF1CF8695710561050894089557
:1033B000E894BB2766277727CB0197F908950E94E9
:1033C000F2190C94A5190E94971938F00E949E19C1
:1033D00020F0952311F00C948E190C94941911245B
:1033E0000C94D9190E94B61970F3959FC1F3950FEB
:1033F00050E0551F629FF001729FBB27F00DB11D79
:10340000639FAA27F00DB11DAA1F649F6627B00D08
:10341000A11D661F829F2227B00DA11D621F739FF1
:10342000B00DA11D621F839FA00D611D221F749FFF
:103430003327A00D611D231F849F600D211D822F46
:10344000762F6A2F11249F5750409AF0F1F088236D
:103450004AF0EE0FFF1FBB1F661F771F881F91509A
:103460005040A9F79E3F510580F00C948E190C94A2
:10347000D9195F3FE4F3983ED4F386957795679525
:10348000B795F795E7959F5FC1F7FE2B880F911DC4
:103490009695879597F90895CF93DF93823091059C
:1034A00010F482E090E0E0910C03F0910D0320E035
:1034B00030E0C0E0D0E0309711F1408151814817F1
:1034C0005907C0F04817590761F48281938120970A
:1034D00019F09B838A832BC090930D0380930C0378
:1034E00026C02115310519F04217530718F49A0127
:1034F000BE01DF01EF010280F381E02DDCCF211559
:10350000310509F1281B390B2430310590F412964E
:103510008D919C9113976115710521F0FB019383A7
:10352000828304C090930D0380930C03FD013296B7
:1035300044C0FD01E20FF31F8193919322503109A2
:103540002D933C933AC020910A0330910B03232B17
:1035500041F4209103013091040130930B03209337
:103560000A0320910101309102012115310541F436
:103570002DB73EB74091050150910601241B350B34
:10358000E0910A03F0910B03E217F307A0F42E1B5E
:103590003F0B2817390778F0AC014E5F5F4F2417B7
:1035A000350748F04E0F5F1F50930B0340930A03FB
:1035B0008193919302C0E0E0F0E0CF01DF91CF91E1
:1035C00008950F931F93CF93DF93009709F48CC056
:1035D000FC0132971382128200910C0310910D03AB
:1035E0000115110581F420813181820F931F2091F3
:1035F0000A0330910B032817390779F5F0930B0371
:10360000E0930A0371C0D80140E050E0AE17BF0755
:1036100050F412962D913C911397AD01211531056F
:1036200009F1D901F3CF9D01DA013383228360814F
:103630007181860F971F8217930769F4EC01288127
:103640003981260F371F2E5F3F4F318320838A81B8
:103650009B8193838283452B29F4F0930D03E093A0
:103660000C0342C01396FC93EE931297ED0149911F
:1036700059919E01240F351FE217F30771F48081E1
:103680009181840F951F029611969C938E9382814F
:10369000938113969C938E931297E0E0F0E0D8010B
:1036A00012968D919C911397009719F0F8018C0157
:1036B000F6CF8D919C9198012E5F3F4F820F931F03
:1036C00020910A0330910B032817390769F43097CA
:1036D00029F410920D0310920C0302C0138212827F
:1036E00010930B0300930A03DF91CF911F910F9169
:1036F000089581E090E0F8940C94BC1B85FD0C9437
:10370000B01B806291110C94B01B81568A51D8F77E
:1037100008959111089581568A5108F48052855870
:103720000895FB01DC0102C001900D924150504010
:10373000D8F70895DC0101C06D9341505040E0F787
:103740000895FB01DC014150504048F001900D927A
:103750000020C9F701C01D9241505040E0F7089584
:10376000992788270895FB01DC0102C005900D927E
:1037700041505040D8F7089512E0C6E0D2E004C0AE
:10378000FE010E9436182196C730D107C9F7F89478
:02379000FFCF69
:103792000100000E03800001000000000000002E66
:1037A20004270364038E038D03000000009A023194
:1037B20002EE02060381029902486F5454204553D7
:1037C2004300486F54542047414D00486F545420E1
:1037D200566172696F003D20486F545432447570CF
:1037E2006C6578203D00202056657273696F6E20EB
:0637F200302E37202000FC
:00000001FF
