:100000000C947F020C94A7020C94A7020C94660532
:100010000C9466050C9466050C94A7020C94A70238
:100020000C94A7020C94A7020C94A7020C94A702AC
:100030000C94A7020C94A7020C94A7020C94A7029C
:100040000C941C050C94A7020C94E0050C941F065C
:100050000C947A060C94A7020C94A7020C94A702A5
:100060000C94A7020C94A7020152656C2E20616CBF
:10007000746974756465000000000000006D000084
:1000800000000000010102566172696F000000006B
:1000900000000000000000000000006D2F73000051
:1000A000000001010000000000000000000000004E
:1000B0000000000000000000000000000000000040
:1000C00000000152656C2E20616C74697475646562
:1000D000000000000000006D0000000000000101B1
:1000E00002566172696F000000000000000000000D
:1000F00000000000006D2F73000000000101035399
:100100007065656400000000000000000000000051
:100110000000006B6D2F680000000100044469734B
:1001200074616E63650000000000000000000000C4
:10013000006D000000000000040105446972656361
:1001400074696F6E0000000000000000000000B045
:100150000000000000000100064C6F672E20637550
:1001600072722E20706F732E00000000002D0000B0
:10017000000000000900074C61742E206375727244
:100180002E20706F732E00000000002D0000000074
:100190000000090000000000000000000000000056
:1001A000000000000000000000000000000000004F
:1001B0000000014361706163697479000000000010
:1001C000000000000000006D416800000000040015
:1001D0000243757272656E7400000000000000003A
:1001E0000000000000410000000000000101035673
:1001F0006F6C746167652031000000000000000032
:1002000000000056000000000000010104566F6C61
:1002100074616765203200000000000000000000EB
:1002200000560000000000000101054D61696E20CC
:10023000766F6C7461676500000000000000005676
:1002400000000000000001010643656C6C203120B5
:10025000766F6C7461676500000000000056000056
:100260000000000001020743656C6C203220766FAD
:100270006C7461676500000000000056000000001B
:10028000000001020843656C6C203320766F6C74AB
:1002900061676500000000000056000000000000DB
:1002A00001020943656C6C203420766F6C746167C1
:1002B0006500000000000056000000000000010280
:1002C0000A43656C6C203520766F6C74616765003D
:1002D00000000000005600000000000001020B4377
:1002E000656C6C203620766F6C7461676500000069
:1002F0000000005600000000000001020C52656C76
:100300002E20616C74697475646500000000000043
:10031000006D00000000000001010D566172696F60
:100320000000000000000000000000000000006D60
:100330002F730000000001010E4675656C2070658A
:100340007263656E7400000000000000002500006C
:100350000000000001000F4675656C000000000001
:1003600000000000000000000000006D6C000000B4
:10037000000004011054656D7065726174757265DA
:10038000203100000000000000B043000000000029
:1003900001001154656D706572617475726520326B
:1003A00000000000000000B0430000000000010059
:1003B0001252504D0000000000000000000000003C
:1003C00000000000002F6D696E00000004000000B6
:1003D000000000000000000000000000000000001D
:1003E00000000000000000000000000001436170F8
:1003F00061636974790000000000000000000000E3
:10040000006D4168000000000400024375727265CF
:100410006E740000000000000000000000000041B9
:100420000000000000000101034D61696E20766F3D
:100430006C74616765000000000000000056000059
:10044000000000000101044553432054656D702EE7
:100450000000000000000000000000B043000000A9
:10046000000001000552504D000000000000000097
:100470000000000000000000002F6D696E00000009
:100480000400000000000000000000000000000068
:10049000000000000000000000000000000000005C
:1004A00000000000240027002A00000000080002CD
:1004B000010000030407000000000000000000002D
:1004C000000023002600290000000000250028006D
:1004D0002B000404040404040404020202020202C5
:1004E00003030303030301020408102040800102F8
:1004F00004081020010204081020DF15C315112480
:100500001FBECFEFD8E0DEBFCDBF11E0A0E0B1E06D
:10051000EEEEF5E302C005900D92AE36B107D9F7C5
:1005200023E0AEE6B1E001C01D92A631B207E1F7CB
:1005300012E0CEE7D2E004C02197FE010E948919A3
:10054000CD37D107C9F70E94FB080C94EA1A0C9426
:100550000000CF92DF92EF92FF920F931F93CF9301
:10056000DF936C017A018B01C0E0D0E0CE15DF058E
:1005700081F0D8016D918D01D601ED91FC91019032
:10058000F081E02DC6010995892B11F02196EECF5F
:100590007E01C701DF91CF911F910F91FF90EF90E6
:1005A000DF90CF9008953FB7F8948091B801909173
:1005B000B901A091BA01B091BB0126B5A89B05C0B5
:1005C0002F3F19F00196A11DB11D3FBFBA2FA92FD2
:1005D000982F8827820F911DA11DB11DBC01CD014F
:1005E00042E0660F771F881F991F4A95D1F708953B
:1005F0002091BE013091BF012817390771F4909105
:10060000BC018091BD01981741F0E091BC01F0E080
:10061000ED58FE4F808190E008958FEF9FEF089591
:1006200008951F93CF93DF93DC015C968D919C918D
:100630005D97009739F421E030E013963C932E93B8
:1006400012973BC05196ED91FC91529750962C9188
:100650005097322F30951FB75E964C915E97742F4E
:10066000727041FD6095F8944081772311F0422B20
:1006700001C043234083EC012197F1F748E050810A
:1006800060FF02C0522B01C053235083EC0121971D
:10069000F1F76695415099F78081772319F083230C
:1006A000808302C0282B20831FBF5C968D919C9174
:1006B0005D970197F1F781E090E0DF91CF911F9175
:1006C00008952091BE013091BF012817390771F4B8
:1006D0008091BD012091BC0190E0805C9F4F821B06
:1006E000910960E470E00E947519089580E090E03F
:1006F00008952091BE013091BF0128173907B9F440
:100700009091BC018091BD01981789F0E091BC01E6
:10071000F0E0ED58FE4F80812091BC0130E02F5F6A
:100720003F4F2F7333272093BC0190E008958FEF44
:100730009FEF0895089580E090E008951F93CF9370
:10074000DF93F894EC01CA57DF4F2881203400F57D
:10075000DC01AE57BF4F1C9111965C91119770E070
:10076000411103C020E030E002C020E031E0622B04
:10077000732BE12FF52F71836083329628812F5FD1
:100780002883EA17FB0710F0FC013296ED93FC93E7
:10079000FC01E057FF4F8081811108C081E0808318
:1007A0008091C1008F7688628093C1007894DF9138
:1007B000CF911F910895FC01E157FF4F2081222323
:1007C00001F1F894A0917101B0917201A357BF4F4C
:1007D0000D90BC91A02D4C91208121502083329707
:1007E000208131812F5F3F4FBC0165577F4F261716
:1007F000370718F09C0129573F4F318320837894A5
:1008000001C040E0842F08950E94B01A90E0FC01DE
:10081000E655FB4F2491FC01EA51FB4F3491FC015A
:10082000EE52FB4FE491EE2309F43CC0222339F150
:10083000233091F038F42130A9F0223001F584B54D
:100840008F7D12C0273091F02830A1F02430B9F408
:10085000809180008F7D03C0809180008F7780938E
:1008600080000DC084B58F7784BD09C08091B00031
:100870008F7703C08091B0008F7D8093B000F0E04F
:10088000EE0FFF1FE853FB4FA591B4919FB7F8946B
:10089000611104C08C913095382302C0EC913E2B3D
:1008A0003C939FBF0895CF93DF9390E0FC01EA5102
:1008B000FB4F2491FC01EE52FB4F8491882361F1A0
:1008C00090E0880F991FFC01E056FB4FC591D49131
:1008D000FC01E853FB4FA591B491611109C09FB78A
:1008E000F8948881209582238883EC912E230BC075
:1008F000623061F49FB7F8948881322F309583235A
:100900008883EC912E2B2C939FBF06C08FB7F89451
:10091000E8812E2B28838FBFDF91CF91089510920D
:10092000C0008CE18093C10086E38093C2001092E6
:10093000C50086E68093C40062E080E00E94530414
:1009400062E081E00C945304CF93DF93EC010E94AA
:100950008F04FE01329680E8DF011D928A95E9F747
:10096000DE01AE57BF4F1196FC93EE931296ED93B6
:10097000FC93EC57FF4F1082319684E0DF011D920B
:100980008A95E9F7DE01A557BF4F1196FC93EE93C8
:100990001296ED93FC933896108231961082D09384
:1009A0007201C0937101DF91CF9108958F929F9250
:1009B000AF92BF92CF92DF92EF92FF926B017C01D8
:1009C0000E94D3024B015C01C114D104E104F10483
:1009D000F1F00E94D302DC01CB0188199909AA0920
:1009E000BB09883E9340A105B10570F321E0C21A0E
:1009F000D108E108F10888EE880E83E0981EA11C5A
:100A0000B11CC114D104E104F10419F7DDCFFF904A
:100A1000EF90DF90CF90BF90AF909F908F90089510
:100A20002FB7F8946091B4017091B5018091B6012F
:100A30009091B7012FBF08951F920F920FB60F929A
:100A400011242F933F938F939F93AF93BF938091E4
:100A5000B4019091B501A091B601B091B701309168
:100A6000B30123E0230F2D3720F40196A11DB11D02
:100A700005C026E8230F0296A11DB11D2093B301E6
:100A80008093B4019093B501A093B601B093B701E0
:100A90008091B8019091B901A091BA01B091BB01C8
:100AA0000196A11DB11D8093B8019093B901A09347
:100AB000BA01B093BB01BF91AF919F918F913F91CC
:100AC0002F910F900FBE0F901F9018951F920F92AD
:100AD0000FB60F9211242F933F934F935F936F9311
:100AE0007F938F939F93AF93BF93EF93FF93E09187
:100AF000BE01F091BF01309709F451C0968DA685D3
:100B0000B785858591FF04C09C91892329F447C04E
:100B10009C91892309F043C0A389B4899C9185895C
:100B2000809589238C93868997890197F1F7608D49
:100B3000718DA685B785558538E020E0CB010197FA
:100B4000F1F7822F90E095958795282F4C914523BA
:100B500009F02068315091F7868D81FD20958091B4
:100B6000BD0190E001968F7399273091BC01381731
:100B700049F0A091BD01B0E0AD58BE4F2C938093D9
:100B8000BD0103C0868D8160868F828D938D019714
:100B9000F1F7A389B4899C918589892B8C93FF9166
:100BA000EF91BF91AF919F918F917F916F915F91E5
:100BB0004F913F912F910F900FBE0F901F9018955E
:100BC0001F920F920FB60F9211242F933F938F9382
:100BD0009F93AF93BF93EF93FF939091C60090378D
:100BE00031F0903B21F0903D11F0903ED9F42091EE
:100BF000710130917201F901E557FF4FA081B18178
:100C00009C93D901A157BF4F8C918F5F8C938081AA
:100C1000918101968E179F0718F0C90189579F4F40
:100C200091838083FF91EF91BF91AF919F918F91BD
:100C30003F912F910F900FBE0F901F9018951F920C
:100C40000F920FB60F9211242F933F934F935F9300
:100C50008F939F93EF93FF93809171019091720115
:100C6000FC01EA57FF4F2081222351F13297019076
:100C7000F081E02D208131818091C10030FF02C0E0
:100C8000816001C08E7F8093C1002093C6002091B7
:100C9000710130917201F901EA57FF4F8081815053
:100CA00080833297808191810296A9014E575F4FD0
:100CB0008417950710F0C9010296918380830DC0B7
:100CC0008091C1008F7D80648093C100E0917101AB
:100CD000F0917201E057FF4F1082FF91EF919F91C9
:100CE0008F915F914F913F912F910F900FBE0F9079
:100CF0001F9018951F920F920FB60F9211242F93E9
:100D00003F938F939F93EF93FF93E1ECF0E080810B
:100D1000877B8069808380917101909172019C0131
:100D200029573F4FFC01E557FF4F3183208332960F
:100D30003183208332961082FF91EF919F918F91A2
:100D40003F912F910F900FBE0F901F901895EF922B
:100D5000FF920F931F93CF93DF93CDB7DEB76E97BC
:100D60000FB6F894DEBF0FBECDBF8C017A01FC0137
:100D700012828FEF9FEFDC0183839483A583B68378
:100D8000138E148E158E168E178E4EE1469FC0015F
:100D9000479F900D1124B901680F791F4EE150E073
:100DA000CE0101960E9448178D8DF801858F8981AB
:100DB0008283E114F10451F0F70180819181A281D5
:100DC000B381F80183839483A583B683A801495F27
:100DD0005F4FDE011296FA0190E08D91882329F091
:100DE000933129F09F5F8193F8CF692F01C063E1B0
:100DF000F801938F20E0762F720FE6E1F0E0EC0F20
:100E0000FD1FE20FF11D3081872F90E0332341F069
:100E1000733130F42F5FFA01E80FF91F3083EBCF05
:100E2000F801248FFA01E80FF91F10828E8D8130AE
:100E300021F0823029F480E401C080E2F801868F3D
:100E4000F801858D843091F030F4882361F0813091
:100E500079F483E00BC0883041F0893031F085307F
:100E600039F484E003C082E001C085E0F801878F97
:100E70006E960FB6F894DEBF0FBECDBFDF91CF9157
:100E80001F910F91FF90EF900895CF92DF92EF9214
:100E9000FF920F931F93CF93DF93CDB7DEB76E977B
:100EA0000FB6F894DEBF0FBECDBFD090F801D110C1
:100EB00096C07B018C0130E2C32EE2E2F2E0DF015A
:100EC0008C2D1D928A95E9F740E250E060E270E0D7
:100ED00082E492E00E94D11A1092FF0143E150E0B7
:100EE000B80184EE91E00E94D81AF8010190002028
:100EF000E9F73197E01BF10BE093F801F092FA016A
:100F0000E092F901E0E0F2E0DF011D92CA94E9F716
:100F100000E010E06091F9017091FA01600F711F1B
:100F20004EE150E0CE0101960E944817E981EE2380
:100F3000B1F0E03220F4F0E0E152FE4FD1A2809116
:100F4000FD019091FE0101969093FE018093FD01B9
:100F5000025E1F4FD394003CB3E01B07D9F600910B
:100F6000FD011091FE01013CEFE11E0730F4C801C4
:100F7000880F991F880F991F02C08FEF9FEF0E9463
:100F80008F19FC0120E030E04FEF5FEFBA0102174C
:100F9000130739F041935193619371932F5F3F4F42
:100FA000F6CF8093FB019093FC0181E990E00E94D1
:100FB0008F1921E9DC011D922A95E9F72BE031E038
:100FC000FC013183208390932102809320020E94B0
:100FD000A40460ED77E080E090E00E94D6046E9675
:100FE0000FB6F894DEBF0FBECDBFDF91CF911F913A
:100FF0000F91FF90EF90DF90CF9008958091DA01EC
:101000009091DB01892B59F1E091BE01F091BF0174
:1010100081E0E03CF80719F1309739F0A389B489F1
:101020009C918589809589238C938091DE018E7FA8
:101030008093DE011092BD011092BC0180EC91E022
:101040009093BF018093BE01E091D301F091D40150
:1010500090818091D501892B808381E0089580E083
:101060000895CF92DF92EF92FF92CF93DF93C82F34
:101070000E94FE0780EC91E00E9461031816190699
:101080002CF480EC91E00E947903F4CF60E880ECCE
:1010900091E00E94110361E070E080E090E00E9426
:1010A000D6046C2F80EC91E00E9411036C2F80EC31
:1010B00091E00E94110361E070E080E090E00E9406
:1010C000D60480EC91E00E9479030E9410056B0128
:1010D0007C010E941005D0E080EC91E00E94610349
:1010E0001816190674F480EC91E00E947903ED2F34
:1010F000F0E0EB51FD4F8083DF5F0E9410056B0134
:101100007C010E941005DC01CB018C199D09AE0900
:10111000BF0984369105A105B10508F03FC0DD3255
:10112000D8F2E5EEF2E080E09191890F93E0E131B1
:10113000F907D1F79091E5029C3781F59091E6028D
:10114000C9132CC0909110039D3741F59091110364
:10115000891324C0CC38F1F028F4C938B1F0CA386A
:1011600079F01FC0CD3839F0CE38D9F48091E8023B
:10117000803EB9F013C08091E802803D91F00EC02E
:101180008091E802803A69F009C08091E8028039D4
:1011900041F004C08091E802803C19F080E090E0CA
:1011A00002C085EE92E0DF91CF91FF90EF90DF904B
:1011B000CF9008950E94310821E0892B09F420E0A6
:1011C000822F08952091FB013091FC0121153105FA
:1011D00089F0803278F4E82FF0E0E152FE4F81A1EF
:1011E000F90194E0899FE00DF11D112440835183A2
:1011F000628373830895CF93DF93CDB7DEB7A09753
:101200000FB6F894DEBF0FBECDBF789484B5826070
:1012100084BD84B5816084BD85B5826085BD85B59A
:10122000816085BD80916E00816080936E00109218
:101230008100809181008260809381008091810093
:101240008160809381008091800081608093800024
:101250008091B10084608093B1008091B000816082
:101260008093B00080917A00846080937A008091AE
:101270007A00826080937A0080917A008160809306
:101280007A0080917A00806880937A001092C10081
:1012900061E08DE00E94530468EB7BE080E090E029
:1012A0000E94D60460E08AE00E94530461E08BE073
:1012B0000E9453041092DB011092DA011092D901BE
:1012C0001092D8011092D7011092D6018DEC90E0C7
:1012D0009093DD018093DC019091CC01963108F070
:1012E00058C025E530E03093D7012093D6012BEC90
:1012F00030E03093D9012093D80120E930E03093D9
:10130000DB012093DA0140916800983058F031E019
:101310009E3008F430E021E0822F01C0880F3A951A
:10132000EAF701C084E0842B80936800983038F09D
:101330009E3040F0963148F42CE630E008C02DE6AF
:1013400030E005C02BE630E002C020E030E0309312
:10135000D4012093D301983030F481E001C0880F8C
:101360009A95EAF70EC0292F30E09E3018F42850E5
:10137000310902C02E50310981E001C0880F2A9541
:10138000EAF78093D5018091DC019091DD0101970E
:10139000F1F70E94FE076AE070E080E090E00E94B2
:1013A000D6040E94FE0780917001811149C061E05E
:1013B0008DE00E9406048CE80E94DA08882341F040
:1013C0008CE8809370016CEE73E087E291E02BC0B3
:1013D0008EE80E94DA08811128C08DE80E94DA08A0
:1013E000882341F08DE88093700162EB71E080E327
:1013F00091E019C08AE80E94DA08882341F08AE85F
:101400008093700162EC70E089E391E00CC089E8A0
:101410000E94DA08882349F089E88093700168E621
:1014200070E082E491E00E94450760E08DE00E9458
:10143000060464EF71E080E090E00E94D604B3CF30
:1014400060E08DE00E9406049CE088E10FB6F8940D
:10145000A895809360000FBE9093600004E610E0B2
:10146000ADE6AA2EA1E0BA2EBAE1CB2ED12CF0E245
:101470008F2E90907001892D0E9431087C01009779
:1014800009F44BC61092670210926602109268022D
:101490001092690210926A0210926B0210926C0212
:1014A00010926D0210926E0210926F0210927002F2
:1014B00010927102109272021092730210927402D2
:1014C00010927502109276021092770210927802B2
:1014D0001092790210927A0210927B0210927C0292
:1014E00010927D0210927E0210927F021092800272
:1014F0001092810210928202109283021092840252
:101500001092850210928602109287021092880231
:101510001092890210928A0210928B0210928C0211
:1015200010928D0210928E0210928F0210929002F1
:1015300010929102109292021092930210929402D1
:1015400010929502109296021092970210929802B1
:101550001092990210929A0210929B0210929C0291
:1015600010929D0210929E0210929F021092A00271
:101570001092A1021092A2021092A3021092A40251
:101580001092A5021092A6021092A7021092A80231
:101590001092A9021092AA021092AB021092AC0211
:1015A0001092AD021092AE021092AF021092B002F1
:1015B0001092B1021092B2021092B3021092B502D0
:1015C0001092B4021092B6021092B7021092B802B2
:1015D0001092B9021092BA021092BC021092BB0291
:1015E0001092BD021092BE021092BF021092C10270
:1015F0001092C0021092C3021092C2021092C50251
:101600001092C4021092C6021092C7021092C80231
:101610001092C9021092CA021092CB021092CC0210
:101620001092CD021092CE02DC0111968C918D3871
:1016300009F497C28E3809F4A1C08A3811F00C94CD
:10164000BB13F70185899689845F91409093B50219
:101650008093B4026789708D80E090E00E946618E4
:1016600020E030E64AEE56E40E9451172AE037EDBA
:1016700043E25CE30E94F4186093B6027093B702F1
:101680008093B8029093B902D70117968D919C91DF
:1016900018979093C3028093C20253968D919C91A8
:1016A00054979093C5028093C40216968C91169716
:1016B000880F8093C6021A962D913C911B97C90101
:1016C000B8010E9461193C01C90186199709B80146
:1016D0000E9461197727072E000C880B990B0E9436
:1016E00068181B012C01B30180E090E00E9466188D
:1016F00020E030E040E752E40E94BE179B01AC01BD
:10170000C201B1010E9452176093C7027093C802D0
:101710008093C9029093CA02F70127853089C901D5
:10172000B8010E9461197C01C9018E199F09B80195
:101730000E9461197727072E000C880B990B0E94D5
:1017400068182B013C01B70180E090E00E94661808
:1017500020E030E040E752E40E94BE179B01AC015C
:10176000C301B2010E9452176093CB027093CC0266
:101770008093CD029093CE020C94BB13F70120A16D
:1017800031A17AE0772E729EC001739E900D1124D4
:101790009093670280936602648D758D80E090E07F
:1017A0000E946618609368027093690280936A02CF
:1017B00090936B02D70154966D917C91559780E080
:1017C00090E00E94661860936C0270936D028093A3
:1017D0006E0290936F02F7016689778980E090E04E
:1017E0000E94661860937002709371028093720277
:1017F00090937302D7015E966D917C915F9780E024
:1018000090E00E9466186093740270937502809352
:10181000760290937702F701668170E080E090E0B5
:101820000E94681820E030E048EC52E40E94BE17A5
:101830009B01AC010E94521760937C0270937D0261
:1018400080937E0290937F02D70117966C9170E08F
:1018500080E090E00E94681820E030E048EC52E41C
:101860000E94BE179B01AC010E9452176093800238
:10187000709381028093820290938302F7016085C6
:1018800070E080E090E00E94681820E030E048ECD2
:1018900052E40E94BE179B01AC010E945217609354
:1018A0008402709385028093860290938702D70109
:1018B00019966C9170E080E090E00E94681820E03A
:1018C00030E048EC52E40E94BE179B01AC010E943C
:1018D0005217609388027093890280938A029093D2
:1018E0008B02F701628570E080E090E00E9468184A
:1018F00020E030E048EC52E40E94BE179B01AC01AE
:101900000E94521760938C0270938D0280938E0216
:1019100090938F02D7011B966C9170E080E090E06D
:101920000E94681820E030E048EC52E40E94BE17A4
:101930009B01AC010E945217609390027093910238
:101940008093920290939302F701648570E080E0A7
:1019500090E00E94681820E030E048EC52E40E94D9
:10196000BE179B01AC010E945217609394027093C2
:1019700095028093960290939702D7011D966C91E1
:1019800070E080E090E00E94681820E030E048ECD1
:1019900052E40E94BE179B01AC010E945217609353
:1019A00098027093990280939A0290939B02F70198
:1019B000668570E080E090E00E94681820E030E0EA
:1019C00048EC52E40E94BE179B01AC010E945217E2
:1019D00060939C0270939D0280939E0290939F025D
:1019E000D7011F966C9170E080E090E00E9468182B
:1019F00020E030E048EC52E40E94BE179B01AC01AD
:101A00000E9452176093A0027093A1028093A202D9
:101A10009093A302F701608970E080E090E00E945B
:101A2000681820E030E048EC52E40E94BE179B01A9
:101A3000AC010E9452176093A4027093A502809398
:101A4000A6029093A702D70151966C9170E080E0B6
:101A500090E00E94681820E030E048EC52E40E94D8
:101A6000BE179B01AC010E9452176093A8027093AD
:101A7000A9028093AA029093AB02F701628970E0F9
:101A800080E090E00E94681820E030E048EC52E4EA
:101A90000E94BE179B01AC010E9452176093AC02DA
:101AA0007093AD028093AE029093AF02D70153962C
:101AB0006C9170E080E090E00E94681820E030E0D7
:101AC00048EC52E40E94BE179B01AC010E945217E1
:101AD0006093B0027093B1028093B2029093B3020C
:101AE000F701828D938D845F91409093B50280932E
:101AF000B40262A173A180E090E00E94661820E029
:101B000030E64AEE56E40E9451172AE037ED43E2F0
:101B10005CE30E94F4186093B6027093B70280935E
:101B2000B8029093B902D70158968C915897845176
:101B30008093BD0259968C91599784518093BE022F
:101B400096968C9190E0382F2227822B932B789EAB
:101B50009001799E300D11243093C1022093C00270
:101B60000AC6F70120A131A16AE0762E729EC0015B
:101B7000739E900D11249093670280936602648D8A
:101B8000758D80E090E00E94661860936802709303
:101B9000690280936A0290936B02D7011C966D9143
:101BA0007C911D9780E090E00E94661860936C0223
:101BB00070936D0280936E0290936F02F7016685B9
:101BC000778580E090E00E946618609370027093C1
:101BD00071028093720290937302D7015E966D91A9
:101BE0007C915F9780E090E00E9466186093740299
:101BF000709375028093760290937702F701668165
:101C000070E080E090E00E94681820E030E048EC4E
:101C100052E40E94BE179B01AC010E9452176093D0
:101C20007C0270937D0280937E0290937F02D701A5
:101C300017966C9170E080E090E00E94681820E0B8
:101C400030E048EC52E40E94BE179B01AC010E94B8
:101C50005217609380027093810280938202909366
:101C60008302F701608570E080E090E00E946818D0
:101C700020E030E048EC52E40E94BE179B01AC012A
:101C80000E945217609384027093850280938602AB
:101C900090938702D70119966C9170E080E090E0F4
:101CA0000E94681820E030E048EC52E40E94BE1721
:101CB0009B01AC010E9452176093880270938902C5
:101CC00080938A0290938B02F701628570E080E036
:101CD00090E00E94681820E030E048EC52E40E9456
:101CE000BE179B01AC010E94521760938C02709347
:101CF0008D0280938E0290938F02D7011B966C9178
:101D000070E080E090E00E94681820E030E048EC4D
:101D100052E40E94BE179B01AC010E9452176093CF
:101D20009002709391028093920290939302F70134
:101D30008789908D845F91409093B5028093B4021F
:101D4000618D728D80E090E00E94661820E030E6A0
:101D50004AEE56E40E9451172AE037ED43E25CE375
:101D60000E94F4186093B6027093B7028093B80291
:101D70009093B902D70152968C9152978093BA02F0
:101D800053968D919C9154979093BC028093BB0283
:101D900050968C91509784518093BD0251968C91AE
:101DA000519784518093BE0255962D913C91569740
:101DB000729EC001739E900D11249093C102809376
:101DC000C002D9C44EE89412A8C140916602509155
:101DD000670260E070E081E00E94E20860916802C2
:101DE0007091690280916A0290916B020E94301892
:101DF000AB01BC0182E00E94E20860916C0270912C
:101E00006D0280916E0290916F020E943018AB01BA
:101E1000BC0183E00E94E20860917002709171023F
:101E200080917202909173020E943018AB01BC0144
:101E300084E00E94E20860917402709175028091C2
:101E40007602909177020E943018AB01BC0185E0C8
:101E50000E94E20820E030E048EC52E460917C020D
:101E600070917D0280917E0290917F020E94F41811
:101E70000E943018AB01BC0186E00E94E20820E01D
:101E800030E048EC52E460918002709181028091D0
:101E90008202909183020E94F4180E943018AB01D4
:101EA000BC0187E00E94E20820E030E048EC52E408
:101EB00060918402709185028091860290918702E0
:101EC0000E94F4180E943018AB01BC0188E00E9407
:101ED000E20820E030E048EC52E460918802709122
:101EE000890280918A0290918B020E94F4180E94CC
:101EF0003018AB01BC0189E00E94E20820E030E02C
:101F000048EC52E460918C0270918D0280918E02B7
:101F100090918F020E94F4180E943018AB01BC010E
:101F20008AE00E94E20820E030E048EC52E4609150
:101F300090027091910280919202909193020E947E
:101F4000F4180E943018AB01BC018BE00E94E2083B
:101F500020E030E048EC52E46091940270919502E8
:101F600080919602909197020E94F4180E94301876
:101F7000AB01BC018CE00E94E20820E030E048ECBC
:101F800052E4609198027091990280919A02909126
:101F90009B020E94F4180E943018AB01BC018DE036
:101FA0000E94E20820E030E048EC52E460919C029C
:101FB00070919D0280919E0290919F020E94F41860
:101FC0000E943018AB01BC018EE00E94E20820E0C4
:101FD00030E048EC52E46091A0027091A10280913F
:101FE000A2029091A3020E94F4180E943018AB0143
:101FF000BC018FE00E94E20820E030E048EC52E4AF
:102000006091A4027091A5028091A6029091A7020E
:102010000E94F4180E943018AB01BC0180E10E94BC
:10202000E20820E030E048EC52E46091A8027091B0
:10203000A9028091AA029091AB020E94F4180E941A
:102040003018AB01BC0181E10E94E20820E030E0E1
:1020500048EC52E46091AC027091AD028091AE0206
:102060009091AF020E94F4180E943018AB01BC019D
:1020700082E10E94E20820E030E048EC52E4609106
:10208000B0027091B1028091B2029091B3020E94AD
:10209000F4180E943018AB01BC0183E10E94E208F1
:1020A0008091B4029091B5022AE0289FA001299F57
:1020B000500D1124052E000C660B770B84E10E9455
:1020C000E2086091B6027091B7028091B8029091D7
:1020D000B9020E943018AB01BC0185E10E94E20800
:1020E0004091BD02042E000C550B660B770B86E168
:1020F0000E94E2084091BE02042E000C550B660BB4
:10210000770B87E10E94E2084091C0025091C10222
:1021100060E070E088E10E94E208809120029091E6
:102120002102DC01ED91FC910480F581E02D0995FF
:10213000803B61F480916E0190916F0197FF1CC00C
:10214000019690936F0180936E011AC0803DA1F4B7
:1021500080916E0190916F01181619064CF4019749
:1021600090936F0180936E0181E08093000104C021
:1021700081E08093630232C080910001882371F175
:1021800080916E0190916F01892B31F5ADE4B1E042
:10219000E2E4F2E080E09D91992321F0811102C0F8
:1021A000908302C0808281E031962DE531E02A17CC
:1021B0003B0789F7ADE5B1E0E2E5F2E080E09D9113
:1021C000992321F0811102C0908302C0808281E0B6
:1021D0003196AA16BB0699F7109200014090DF01D4
:1021E0005090E0016090E1017090E20136E9430E09
:1021F000511C611C711C0E94100564157505860533
:10220000970508F499C20E9410056093DF0170934E
:10221000E0018093E1019093E201809163028823C1
:1022200051F18091200290912102DC01ED91FC910D
:102230000280F381E02D40E06EE709958091200255
:1022400090912102DC01ED91FC910280F381E02D5F
:1022500041E061E909958091200290912102DC0121
:10226000ED91FC910280F381E02D41E061E309955D
:102270001092630215C290906202992009F44CC03A
:10228000E92C092C000CFF08C7010E94B91A892B00
:1022900031F0C7010E94C01A982EF12C02C0FF2411
:1022A000F3948091200290912102DC01ED91FC9148
:1022B0000280F381E02D40E06EE7099580912002D5
:1022C00090912102DC01ED91FC910280F381E02DDF
:1022D00041E062E009958091200290912102DC01A9
:1022E000ED91FC910280F381E02DFF2011F063E27B
:1022F00001C062E241E009958091200290912102A3
:10230000DC01ED91FC910280F381E02D41E0692D2B
:10231000099510926202C4C12091F9013091FA012D
:102320002115310509F4BCC16091E30181E0860FFC
:102330008093E301611117C01092240210922A02C7
:102340009090F801892D880F880F880F80932B02B9
:10235000492D50E064EE71E08CE292E00E94C81AD0
:10236000BAE09B0E42C160FD34C0669570E080917A
:10237000FD019091FE01861797075CF1615071098C
:1023800040E050E0CE0101960E94A7061092240280
:102390008B8180932A028C8DE8E08E9FC0011124EE
:1023A0009D8D892B80932B0280E05AE0952E980E0C
:1023B000E8E0F0E0EC0FFD1FE80FF11D908199239C
:1023C00009F413C18F5FE92DF0E0EE5DFD4F9083BE
:1023D000ECCF80E480932402E12CF12C48E0942E91
:1023E0008091FF012091F9013091FA01682F70E08E
:1023F0004091FB015091FC01F4E08F9F400D511D75
:102400001124CE0101960E94A7068C819D81AE8188
:10241000BF818F3F2FEF9207A207B20709F4C5C013
:102420006B81492D50E03E8D71E0790D603168F08F
:102430004E5D5D4F232F2F70FA01208322E0290D7E
:10244000E72FF0E0EE5DFD4F0BC0272FFA01EE5DA8
:10245000FD4F40E1649FB0011124732F7F70672B03
:10246000608368A170E03430B9F128F4332369F057
:102470003130E1F096C0383009F462C0393009F4E7
:102480007CC0353009F08DC040C0E22FF0E0EE5D39
:10249000FD4F382F3F71B7FF02C080E801C080E0D8
:1024A000832B9F8D892B808381E07CC0422F50E05D
:1024B000FA01EE5DFD4F8083FA01ED5DFD4F392F8E
:1024C0003F71B7FF02C080E801C080E0832B9F8D81
:1024D000892B808382E066C0422F50E0FA01EE5DD6
:1024E000FD4F8083FA01ED5DFD4F9083FA01EC5DB5
:1024F000FD4F3A2F3F71B7FF02C080E801C080E076
:10250000832B9F8D892B808319C0422F50E0FA01C5
:10251000EE5DFD4F8083FA01ED5DFD4F9083FA0182
:10252000EC5DFD4F2D01772457FC7094672CB7FFAD
:1025300002C080E801C080E0482A408283E032C0C7
:10254000422F50E0FA01EE5DFD4F8083FA01ED5D10
:10255000FD4F9083FA01EC5DFD4FA083FA01EB5D26
:10256000FD4F3B2F3F71B7FF02C080E801C080E004
:10257000832B9F8D892B808312C0422F50E0FA015C
:10258000EE5DFD4F8083FA01ED5DFD4F9083FA0112
:10259000EC5DFD4FA083FA01EB5DFD4FB08384E05D
:1025A00001C080E0922E980E02C060E070E0809141
:1025B000FF018F5F8093FF012091FD013091FE01AB
:1025C00090E08217930714F01092FF018FEFE81A42
:1025D000F80AE216F3064CF4892D90E09601261BCA
:1025E000370B821793070CF4FBCE8EE78093220201
:1025F0008FE280932302909124028EEF890D892B24
:102600008093240289E08093250284EA8093260245
:102610008091640280932702809165028093280252
:1026200010922902E92DF0E0A4E2B2E092E080E00D
:1026300037E0991568F42D91822728E087FF03C0C1
:10264000880F832701C0880F2150C1F79F5FF1CF0A
:10265000EE5DFD4F80838091200290912102DC018C
:10266000ED91FC910280F381E02D40E06EE7099549
:10267000FF24F3949F14A0F08091200290912102F6
:10268000AF2DB0E0AE5DBD4FFC0120813181F9017D
:102690002281338141E06C91F9010995F394EACFED
:1026A0008091200290912102DC01ED91FC91028049
:1026B000F381E02D40E06EEF09958091420288237E
:1026C00031F192E4E92E92E0F92E8091200290916E
:1026D0002102F70161917F01DC01ED91FC91028003
:1026E000F381E02D41E00995E2E6F2E0EE15FF0509
:1026F00061F78091200290912102DC01ED91FC9123
:102700000280F381E02D40E06FEF099515C080E273
:10271000E82EF12C8091200290912102DC01ED91B4
:10272000FC910280F381E02D41E060E00995B1E089
:10273000EB1AF10879F7DDCFA89561E08DE00E94F2
:1027400006046AE070E080E090E00E94D60460E059
:102750008DE00E9406046AE070E080E090E00E9454
:10276000D60480E090E0892B11F40C94390A0E9481
:1027700000000C94370AECE89E1239C040916602C2
:102780005091670260E070E081E00E94E208609191
:1027900068027091690280916A0290916B020E94B6
:1027A0003018AB01BC0182E00E94E2086091740223
:1027B0007091750280917602909177020E94301894
:1027C000AB01BC0183E00E94E2084091BF02042EED
:1027D000000C550B660B770B84E00E94E2084091D9
:1027E000C0025091C10260E070E085E094CCE91530
:1027F00008F47CC0F9E89F121FC08091B402909148
:10280000B5022AE0289FA001299F500D1124052E12
:10281000000C660B770B81E00E94E2086091B60223
:102820007091B7028091B8029091B9020E9430185D
:10283000AB01BC0182E06FCC2AE892126ECC809191
:10284000B4029091B5022AE0289FA001299F500D63
:102850001124052E000C660B770B81E00E94E20824
:102860006091B6027091B7028091B8029091B9025E
:102870000E943018AB01BC0182E00E94E208409146
:10288000C2025091C30260E070E083E00E94E2085F
:102890004091C4025091C50260E070E084E00E9463
:1028A000E2084091C60250E060E070E085E00E94DE
:1028B000E2086091C7027091C8028091C9029091AC
:1028C000CA020E943018AB01BC0186E00E94E208F7
:1028D0006091CB027091CC028091CD029091CE029A
:1028E0000E943018AB01BC0187E015CC3DE8931283
:1028F00069CA409166025091670260E070E081E031
:102900000E94E208609168027091690280916A02F7
:1029100090916B020E943018AB01BC0182E00E94D2
:10292000E20860916C0270916D0280916E0290914C
:102930006F020E943018AB01BC0183E00E94E208E4
:102940006091700270917102809172029091730295
:102950000E943018AB01BC0184E00E94E208609143
:1029600074027091750280917602909177020E94B4
:102970003018AB01BC0185E00E94E20820E030E0A5
:1029800048EC52E460917C0270917D0280917E025D
:1029900090917F020E94F4180E943018AB01BC0194
:1029A00086E00E94E20820E030E048EC52E46091CA
:1029B00080027091810280918202909183020E9434
:1029C000F4180E943018AB01BC0187E00E94E208B5
:1029D00020E030E048EC52E460918402709185027E
:1029E00080918602909187020E94F4180E9430180C
:1029F000AB01BC0188E00E94E20820E030E048EC36
:102A000052E4609188027091890280918A029091CB
:102A10008B020E94F4180E943018AB01BC0189E0BF
:102A20000E94E20820E030E048EC52E460918C0221
:102A300070918D0280918E0290918F020E94F41805
:102A40000E943018AB01BC018AE00E94E20820E03D
:102A500030E048EC52E460919002709191028091D4
:102A60009202909193020E94F4180E943018AB01D8
:102A7000BC018BE00E94E2088091B4029091B50203
:102A80002AE0289FA001299F500D1124052E000C3B
:102A9000660B770B8CE00E94E2086091B6027091A1
:102AA000B7028091B8029091B9020E943018AB0130
:102AB000BC018DE00E94E2084091BA0250E060E063
:102AC00070E08EE00E94E2084091BB025091BC028F
:102AD00060E070E08FE00E94E2084091BD02042EA9
:102AE000000C550B660B770B80E10E94E2084091C9
:102AF000BE02042E000C550B660B770B81E10E9481
:102B0000E2084091C0025091C10260E070E082E1B1
:102B10000E94E208409166025091670260E070E016
:102B200081E00E94E20860916802709169028091E0
:102B30006A0290916B020E943018AB01BC0182E0E6
:102B40000E94E20860917402709175028091760291
:102B5000909177020E943018AB01BC0185E00E9481
:102B6000E2084091BD02042E000C550B660B770B5A
:102B700080E10E94E2084091C0025091C10260E0F1
:102B800070E082E1C8CA89E191E09093C10180932D
:102B9000C0018091BE019091BF01805C914071F4B1
:102BA000E091D301F091D40190818091D50180957D
:102BB000892380831092BF011092BE010895109264
:102BC000C3011092C20188EE93E0A0E0B0E08093D0
:102BD000C4019093C501A093C601B093C70189E1D8
:102BE00091E09093C1018093C0011092D70110929F
:102BF000D6011092D9011092D8011092DB011092E7
:102C0000DA011092DD011092DC016091DE016E7F2D
:102C10006D7F6093DE016695617081E068278BE0CF
:102C20000E94060461E08BE00E945304E1EFF4E0AF
:102C3000E491E093D001EDEDF4E0E491F0E0EE0FEB
:102C4000FF1FE853FB4F859194919093D20180939D
:102C5000D10160E08AE00E9453048091DE0181FD91
:102C600004C061E08AE00E9406048AE08093CC01FF
:102C7000E0EFF4E0E491E093CD01ECEDF4E0E491D9
:102C8000F0E0EE0FFF1FE254FB4F8591949190937B
:102C9000CF018093CE0110926702109266021092CB
:102CA00068021092690210926A0210926B021092EE
:102CB0006C0210926D0210926E0210926F021092CE
:102CC00070021092710210927202109273021092AE
:102CD000740210927502109276021092770210928E
:102CE00078021092790210927A0210927B0210926E
:102CF0007C0210927D0210927E0210927F0210924E
:102D0000800210928102109282021092830210922D
:102D1000840210928502109286021092870210920D
:102D200088021092890210928A0210928B021092ED
:102D30008C0210928D0210928E0210928F021092CD
:102D400090021092910210929202109293021092AD
:102D5000940210929502109296021092970210928D
:102D600098021092990210929A0210929B0210926D
:102D70009C0210929D0210929E0210929F0210924D
:102D8000A0021092A1021092A2021092A30210922D
:102D9000A4021092A5021092A6021092A70210920D
:102DA000A8021092A9021092AA021092AB021092ED
:102DB000AC021092AD021092AE021092AF021092CD
:102DC000B0021092B1021092B2021092B3021092AD
:102DD000B5021092B4021092B6021092B70210928D
:102DE000B8021092B9021092BA021092BC0210926C
:102DF000BB021092BD021092BE021092BF0210924E
:102E0000C1021092C0021092C3021092C20210922C
:102E1000C5021092C4021092C6021092C70210920C
:102E2000C8021092C9021092CA021092CB021092EC
:102E3000CC021092CD021092CE021092DF011092BD
:102E4000E0011092E1011092E2011092E301109270
:102E5000F8011092FA011092F9011092FC011092FF
:102E6000FB011092FE011092FD011092FF011092E1
:102E7000210210922002109262021092630286E7F1
:102E80008093640282E3809365021092E4010895C6
:102E9000FB01DC0102C005900D9241505040D8F773
:102EA00008955058BB27AA270E9469170C94BA1896
:102EB0000E94AC1838F00E94B31820F039F49F3FFC
:102EC00019F426F40C94A9180EF4E095E7FB0C9481
:102ED000A318E92F0E94CB1858F3BA17620773079B
:102EE0008407950720F079F4A6F50C94ED180EF4FC
:102EF000E0950B2EBA2FA02D0B01B90190010C010A
:102F0000CA01A0011124FF27591B99F0593F50F421
:102F1000503E68F11A16F040A22F232F342F442779
:102F2000585FF3CF469537952795A795F040539571
:102F3000C9F77EF41F16BA0B620B730B840BBAF041
:102F40009150A1F0FF0FBB1F661F771F881FC2F7AC
:102F50000EC0BA0F621F731F841F48F487957795C0
:102F60006795B795F7959E3F08F0B0CF9395880F7A
:102F700008F09927EE0F9795879508950E94D2172C
:102F80000C94BA180E94B31858F00E94AC1840F084
:102F900029F45F3F29F00C94A31851110C94EE18FA
:102FA0000C94A9180E94CB1868F39923B1F3552308
:102FB00091F3951B550BBB27AA276217730784074C
:102FC00038F09F5F5F4F220F331F441FAA1FA9F3E2
:102FD00035D00E2E3AF0E0E832D091505040E695D0
:102FE000001CCAF72BD0FE2F29D0660F771F881F31
:102FF000BB1F261737074807AB07B0E809F0BB0B24
:10300000802DBF01FF2793585F4F3AF09E3F510537
:1030100078F00C94A3180C94EE185F3FE4F3983EFC
:10302000D4F3869577956795B795F7959F5FC9F720
:10303000880F911D9695879597F90895E1E0660FA1
:10304000771F881FBB1F621773078407BA0720F01A
:10305000621B730B840BBA0BEE1F88F7E095089583
:103060000E9437186894B1110C94EE1808950E94CC
:10307000D31888F09F5798F0B92F9927B751B0F01F
:10308000E1F0660F771F881F991F1AF0BA95C9F7EC
:1030900014C0B13091F00E94ED18B1E008950C9485
:1030A000ED18672F782F8827B85F39F0B93FCCF338
:1030B000869577956795B395D9F73EF49095809569
:1030C000709561957F4F8F4F9F4F0895E89409C089
:1030D00097FB3EF490958095709561957F4F8F4F4B
:1030E0009F4F9923A9F0F92F96E9BB279395F69561
:1030F000879577956795B795F111F8CFFAF4BB0FDF
:1031000011F460FF1BC06F5F7F4F8F4F9F4F16C042
:10311000882311F096E911C0772321F09EE8872FCC
:10312000762F05C0662371F096E8862F70E060E088
:103130002AF09A95660F771F881FDAF7880F969501
:10314000879597F9089597F99F6780E870E060E0A8
:1031500008959FEF80EC089500240A941616170630
:1031600018060906089500240A9412161306140678
:1031700005060895092E0394000C11F4882352F0DB
:10318000BB0F40F4BF2B11F460FF04C06F5F7F4F93
:103190008F4F9F4F089557FD9058440F551F59F07A
:1031A0005F3F71F04795880F97FB991F61F09F3F34
:1031B00079F087950895121613061406551FF2CF5D
:1031C0004695F1DF08C0161617061806991FF1CFAD
:1031D00086957105610508940895E894BB276627D4
:1031E0007727CB0197F908950E9407190C94BA1814
:1031F0000E94AC1838F00E94B31820F0952311F00B
:103200000C94A3180C94A91811240C94EE180E9485
:10321000CB1870F3959FC1F3950F50E0551F629F37
:10322000F001729FBB27F00DB11D639FAA27F00D1F
:10323000B11DAA1F649F6627B00DA11D661F829F46
:103240002227B00DA11D621F739FB00DA11D621F2B
:10325000839FA00D611D221F749F3327A00D611D48
:10326000231F849F600D211D822F762F6A2F11242A
:103270009F5750409AF0F1F088234AF0EE0FFF1F5D
:10328000BB1F661F771F881F91505040A9F79E3FB4
:10329000510580F00C94A3180C94EE185F3FE4F3F2
:1032A000983ED4F3869577956795B795F795E7950A
:1032B0009F5FC1F7FE2B880F911D9695879597F913
:1032C0000895AA1BBB1B51E107C0AA1FBB1FA6176D
:1032D000B70710F0A61BB70B881F991F5A95A9F7BF
:1032E00080959095BC01CD01089597FB072E16F4AB
:1032F000009407D077FD09D00E94611907FC05D022
:103300003EF4909581959F4F0895709561957F4FFC
:103310000895EE0FFF1F0590F491E02D09940F938F
:103320001F93CF93DF938230910510F482E090E0F9
:10333000E0911403F091150320E030E0A0E0B0E04C
:10334000309719F140815181028113814817590743
:10335000C8F08417950769F4109731F012960C9312
:10336000129713961C9327C0009314031093150310
:1033700022C02115310519F04217530718F49A019C
:10338000BD01EF01DF01F801DBCF21153105F9F0B7
:10339000281B390B2430310580F48A819B8161150B
:1033A000710521F0FB019383828304C09093150380
:1033B00080931403FE01329644C0FE01E20FF31F16
:1033C0008193919322503109398328833AC0209107
:1033D000120330911303232B41F420910301309108
:1033E00004013093130320931203209101013091C3
:1033F00002012115310541F42DB73EB74091050179
:1034000050910601241B350BE0911203F091130338
:10341000E217F307A0F42E1B3F0B2817390778F0AB
:10342000AC014E5F5F4F2417350748F04E0F5F1F0A
:1034300050931303409312038193919302C0E0E0F1
:10344000F0E0CF01DF91CF911F910F910895CF93BD
:10345000DF93009709F481C0FC0132971382128236
:10346000A0911403B0911503109781F4208131814C
:10347000820F931F209112033091130328173907ED
:1034800051F5F0931303E093120367C0ED0120E0C0
:1034900030E0CE17DF0740F44A815B819E01411581
:1034A0005105F1F0EA01F5CFD383C2834081518108
:1034B000840F951FC817D90759F488819981840F03
:1034C000951F0296918380838A819B819383828357
:1034D0002115310529F4F0931503E09314033DC041
:1034E000E901FB83EA8349915991C40FD51FEC1779
:1034F000FD0761F480819181840F951F0296E90197
:1035000099838883828193819B838A83E0E0F0E0C2
:1035100012968D919C911397009719F0FD01DC0193
:10352000F7CF8D919C9111979D012E5F3F4F820F98
:10353000931F20911203309113032817390769F460
:10354000309729F4109215031092140302C01382CD
:103550001282B0931303A0931203DF91CF910895C9
:1035600081E090E0F8940C94EA1A85FD0C94E71A37
:10357000806291110C94E71A81568A51D8F7089508
:103580009111089581568A5108F480528558089502
:10359000FB01DC0102C001900D9241505040D8F770
:1035A0000895DC0101C06D9341505040E0F708954B
:1035B000FB01DC014150504048F001900D92002089
:1035C000C9F701C01D9241505040E0F70895992776
:1035D0008827089512E0CEE7D2E004C0FE010E94E1
:0E35E00089192196CF37D107C9F7F894FFCF8C
:1035EE000100001603800000000000A4049E03DB0F
:1035FE00039A039A03000000001103A9029B031013
:10360E000361037903F802486F5454204553430075
:10361E00486F54542047414D00486F545420475032
:10362E005300486F545420566172696F003D204814
:10363E006F5454324475706C6578203D00202056CE
:0E364E00657273696F6E20302E3820200000E8
:00000001FF
