:100000000C9407020C942F020C942F020C94EE0413
:100010000C94EE040C94EE040C942F020C942F021A
:100020000C942F020C942F020C942F020C942F028C
:100030000C942F020C942F020C942F020C942F027C
:100040000C94A4040C942F020C9468050C94A7053E
:100050000C9402060C942F020C942F020C942F0285
:100060000C942F020C942F020152656C2E20616CAF
:10007000746974756465000000000000006D000084
:1000800000000000010102566172696F000000006B
:1000900000000000000000000000006D2F73000051
:1000A000000001010000000000000000000000004E
:1000B0000000000000000000000000000000000040
:1000C0000000014361706163697479000000000001
:1000D000000000000000006D416800000000040006
:1000E0000243757272656E7400000000000000002B
:1000F0000000000000410000000000000101035664
:100100006F6C746167652031000000000000000022
:1001100000000056000000000000010104566F6C52
:1001200074616765203200000000000000000000DC
:1001300000560000000000000101054D61696E20BD
:10014000766F6C7461676500000000000000005667
:1001500000000000000001010643656C6C203120A6
:10016000766F6C7461676500000000000056000047
:100170000000000001020743656C6C203220766F9E
:100180006C7461676500000000000056000000000C
:10019000000001020843656C6C203320766F6C749C
:1001A00061676500000000000056000000000000CC
:1001B00001020943656C6C203420766F6C746167B2
:1001C0006500000000000056000000000000010271
:1001D0000A43656C6C203520766F6C74616765002E
:1001E00000000000005600000000000001020B4368
:1001F000656C6C203620766F6C746167650000005A
:100200000000005600000000000001020C52656C66
:100210002E20616C74697475646500000000000034
:10022000006D00000000000001010D566172696F51
:100230000000000000000000000000000000006D51
:100240002F730000000001010E4675656C2070657B
:100250007263656E7400000000000000002500005D
:100260000000000001000F4675656C0000000000F2
:1002700000000000000000000000006D6C000000A5
:10028000000004011054656D7065726174757265CB
:10029000203100000000000000B04300000000001A
:1002A00001001154656D706572617475726520325C
:1002B00000000000000000B043000000000001004A
:1002C0001252504D0000000000000000000000002D
:1002D00000000000002F6D696E00000004000000A7
:1002E000000000000000000000000000000000000E
:1002F00000000000000000000000000001436170E9
:1003000061636974790000000000000000000000D3
:10031000006D4168000000000400024375727265C0
:100320006E740000000000000000000000000041AA
:100330000000000000000101034D61696E20766F2E
:100340006C7461676500000000000000005600004A
:10035000000000000101044553432054656D702ED8
:100360000000000000000000000000B0430000009A
:10037000000001000552504D000000000000000088
:100380000000000000000000002F6D696E000000FA
:100390000400000000000000000000000000000059
:1003A000000000000000000000000000000000004D
:1003B00000000000240027002A00000000080002BE
:1003C000010000030407000000000000000000001E
:1003D000000023002600290000000000250028005E
:1003E0002B000404040404040404020202020202B6
:1003F00003030303030301020408102040800102E9
:100400000408102001020408102066154A15112462
:100410001FBECFEFD8E0DEBFCDBF11E0A0E0B1E05E
:10042000ECEFF4E302C005900D92A436B107D9F7C2
:1004300023E0A4E6B1E001C01D92AC30B207E1F7C1
:1004400012E0C6E0D2E004C02197FE010E9410191C
:10045000C530D107C9F70E947E080C94711A0C941C
:100460000000CF92DF92EF92FF920F931F93CF93F2
:10047000DF936C017A018B01C0E0D0E0CE15DF057F
:1004800081F0D8016D918D01D601ED91FC91019023
:10049000F081E02DC6010995892B11F02196EECF50
:1004A0007E01C701DF91CF911F910F91FF90EF90D7
:1004B000DF90CF9008953FB7F8948091AE0190916E
:1004C000AF01A091B001B091B10126B5A89B05C0C4
:1004D0002F3F19F00196A11DB11D3FBFBA2FA92FC3
:1004E000982F8827820F911DA11DB11DBC01CD0140
:1004F00043E0660F771F881F991F4A95D1F708952B
:100500002091B4013091B5012817390771F4909109
:10051000B2018091B301981741F0E091B201F0E08F
:10052000E759FE4F808190E008958FEF9FEF089587
:1005300008951F93CF93DF93DC015C968D919C917E
:100540005D97009739F421E030E013963C932E93A9
:1005500012973BC05196ED91FC91529750962C9179
:100560005097322F30951FB75E964C915E97742F3F
:10057000727041FD6095F8944081772311F0422B11
:1005800001C043234083EC012197F1F748E05081FB
:1005900060FF02C0522B01C053235083EC0121970E
:1005A000F1F76695415099F78081772319F08323FD
:1005B000808302C0282B20831FBF5C968D919C9165
:1005C0005D970197F1F781E090E0DF91CF911F9166
:1005D00008952091B4013091B5012817390771F4BD
:1005E0008091B3012091B20190E0805C9F4F821B0B
:1005F000910960E470E00E94FC18089580E090E0AA
:1006000008952091B4013091B50128173907B9F444
:100610009091B2018091B301981789F0E091B201F5
:10062000F0E0E759FE4F80812091B20130E02F5F6A
:100630003F4F2F7333272093B20190E008958FEF3F
:100640009FEF0895089580E090E008951F93CF9361
:10065000DF93F894EC01CA57DF4F2881203400F56E
:10066000DC01AE57BF4F1C9111965C91119770E061
:10067000411103C020E030E002C020E031E0622BF5
:10068000732BE12FF52F71836083329628812F5FC2
:100690002883EA17FB0710F0FC013296ED93FC93D8
:1006A000FC01E057FF4F8081811108C081E0808309
:1006B0008091C1008F7688628093C1007894DF9129
:1006C000CF911F910895FC01E157FF4F2081222314
:1006D00001F1F894A0916701B0916801A357BF4F51
:1006E0000D90BC91A02D4C912081215020833297F8
:1006F000208131812F5F3F4FBC0165577F4F261707
:10070000370718F09C0129573F4F31832083789495
:1007100001C040E0842F08950E94371A90E0FC0148
:10072000E654FC4F2491FC01EA50FC4F3491FC014B
:10073000EE51FC4FE491EE2309F43CC0222339F141
:10074000233091F038F42130A9F0223001F584B53E
:100750008F7D12C0273091F02830A1F02430B9F4F9
:10076000809180008F7D03C0809180008F7780937F
:1007700080000DC084B58F7784BD09C08091B00022
:100780008F7703C08091B0008F7D8093B000F0E040
:10079000EE0FFF1FE852FC4FA591B4919FB7F8945C
:1007A000611104C08C913095382302C0EC913E2B2E
:1007B0003C939FBF0895CF93DF9390E0FC01EA50F4
:1007C000FC4F2491FC01EE51FC4F8491882361F190
:1007D00090E0880F991FFC01E055FC4FC591D49122
:1007E000FC01E852FC4FA591B491611109C09FB77B
:1007F000F8948881209582238883EC912E230BC066
:10080000623061F49FB7F8948881322F309583234A
:100810008883EC912E2B2C939FBF06C08FB7F89442
:10082000E8812E2B28838FBFDF91CF9108951092FE
:10083000C0008CE18093C10086E38093C2001092D7
:10084000C50082E38093C40062E080E00E94DB0385
:1008500062E081E00C94DB03CF93DF93EC010E9414
:100860001704FE01329680E8DF011D928A95E9F7B0
:10087000DE01AE57BF4F1196FC93EE931296ED93A7
:10088000FC93EC57FF4F1082319684E0DF011D92FC
:100890008A95E9F7DE01A557BF4F1196FC93EE93B9
:1008A0001296ED93FC933896108231961082D09375
:1008B0006801C0936701DF91CF9108958F929F9255
:1008C000AF92BF92CF92DF92EF92FF926B017C01C9
:1008D0000E945B024B015C01C114D104E104F104EC
:1008E000F1F00E945B02DC01CB0188199909AA0989
:1008F000BB09883E9340A105B10570F321E0C21AFF
:10090000D108E108F10888EE880E83E0981EA11C4A
:10091000B11CC114D104E104F10419F7DDCFFF903B
:10092000EF90DF90CF90BF90AF909F908F90089501
:100930002FB7F8946091AA017091AB018091AC013E
:100940009091AD012FBF08951F920F920FB60F9295
:1009500011242F933F938F939F93AF93BF938091D5
:10096000AA019091AB01A091AC01B091AD01309181
:10097000A90126E0230F2D3720F40296A11DB11DF9
:1009800005C029E8230F0396A11DB11D2093A901DD
:100990008093AA019093AB01A093AC01B093AD01F9
:1009A0008091AE019091AF01A091B001B091B101E1
:1009B0000196A11DB11D8093AE019093AF01A0934C
:1009C000B001B093B101BF91AF919F918F913F91D1
:1009D0002F910F900FBE0F901F9018951F920F929E
:1009E0000FB60F9211242F933F934F935F936F9302
:1009F0007F938F939F93AF93BF93EF93FF93E09178
:100A0000B401F091B501309709F451C0968DA685D7
:100A1000B785858591FF04C09C91892329F447C03F
:100A20009C91892309F043C0A389B4899C9185894D
:100A3000809589238C93868997890197F1F7608D3A
:100A4000718DA685B785558538E020E0CB010197EB
:100A5000F1F7822F90E095958795282F4C914523AB
:100A600009F02068315091F7868D81FD20958091A5
:100A7000B30190E001968F7399273091B201381736
:100A800049F0A091B301B0E0A759BE4F2C938093D9
:100A9000B30103C0868D8160868F828D938D01970F
:100AA000F1F7A389B4899C918589892B8C93FF9157
:100AB000EF91BF91AF919F918F917F916F915F91D6
:100AC0004F913F912F910F900FBE0F901F9018954F
:100AD0001F920F920FB60F9211242F933F938F9373
:100AE0009F93AF93BF93EF93FF939091C60090377E
:100AF00031F0903B21F0903D11F0903ED9F42091DF
:100B0000670130916801F901E557FF4FA081B1817C
:100B10009C93D901A157BF4F8C918F5F8C9380819B
:100B2000918101968E179F0718F0C90189579F4F31
:100B300091838083FF91EF91BF91AF919F918F91AE
:100B40003F912F910F900FBE0F901F9018951F92FD
:100B50000F920FB60F9211242F933F934F935F93F1
:100B60008F939F93EF93FF9380916701909168011A
:100B7000FC01EA57FF4F2081222351F13297019067
:100B8000F081E02D208131818091C10030FF02C0D1
:100B9000816001C08E7F8093C1002093C6002091A8
:100BA000670130916801F901EA57FF4F8081815058
:100BB00080833297808191810296A9014E575F4FC1
:100BC0008417950710F0C9010296918380830DC0A8
:100BD0008091C1008F7D80648093C100E0916701A6
:100BE000F0916801E057FF4F1082FF91EF919F91C4
:100BF0008F915F914F913F912F910F900FBE0F906A
:100C00001F9018951F920F920FB60F9211242F93D9
:100C10003F938F939F93EF93FF93E1ECF0E08081FC
:100C2000877B8069808380916701909168019C0136
:100C300029573F4FFC01E557FF4F31832083329600
:100C40003183208332961082FF91EF919F918F9193
:100C50003F912F910F900FBE0F901F901895EF921C
:100C6000FF920F931F93CF93DF93CDB7DEB76E97AD
:100C70000FB6F894DEBF0FBECDBF8C017A01FC0128
:100C800012828FEF9FEFDC0183839483A583B68369
:100C9000138E148E158E168E178E4EE1469FC00150
:100CA000479F900D1124B901680F791F4EE150E064
:100CB000CE0101960E94CF168D8DF801858F898116
:100CC0008283E114F10451F0F70180819181A281C6
:100CD000B381F80183839483A583B683A801495F18
:100CE0005F4FDE011296FA0190E08D91882329F082
:100CF000933129F09F5F8193F8CF692F01C063E1A1
:100D0000F801938F20E0762F720FE6E1F0E0EC0F10
:100D1000FD1FE20FF11D3081872F90E0332341F05A
:100D2000733130F42F5FFA01E80FF91F3083EBCFF6
:100D3000F801248FFA01E80FF91F10828E8D81309F
:100D400021F0823029F480E401C080E2F801868F2E
:100D5000F801858D843091F030F4882361F0813082
:100D600079F483E00BC0883041F0893031F0853070
:100D700039F484E003C082E001C085E0F801878F88
:100D80006E960FB6F894DEBF0FBECDBFDF91CF9148
:100D90001F910F91FF90EF900895CF92DF92FF92F5
:100DA0000F931F93CF93DF93CDB7DEB76E970FB638
:100DB000F894DEBF0FBECDBF8C016B0130E2F32E85
:100DC000E8E1F2E0DF018F2D1D928A95E9F740E21C
:100DD00050E060E270E088E392E00E94581A1092BE
:100DE000F50143E150E0B8018AED91E00E945F1AFD
:100DF000F80101900020E9F73197E01BF10BE09337
:100E0000EE01D092F001C092EF01E6EFF1E0DF01D8
:100E10001D92FA94E9F7F12C00E010E06091EF01E7
:100E20007091F001600F711F4EE150E0CE0101960C
:100E30000E94CF16E981EE23B1F0E03220F4F0E019
:100E4000EB52FE4FF1A28091F3019091F4010196D3
:100E50009093F4018093F301025E1F4FF394003CE2
:100E6000B3E01B07D9F60091F3011091F401013CA6
:100E7000EFE11E0730F4C801880F991F880F991FF2
:100E800002C08FEF9FEF0E941619FC0120E030E0B6
:100E90004FEF5FEFBA010217130739F041935193F7
:100EA000619371932F5F3F4FF6CF8093F101909341
:100EB000F20181E990E00E94161921E9DC011D92FE
:100EC0002A95E9F72BE031E0FC01318320839093F0
:100ED0001702809316020E942C0460ED77E080E0F8
:100EE00090E00E945E046E960FB6F894DEBF0FBECF
:100EF000CDBFDF91CF911F910F91FF90DF90CF90E9
:100F000008958091D0019091D101892B59F1E09100
:100F1000B401F091B50181E0E63BF80719F1309793
:100F200039F0A389B4899C918589809589238C9314
:100F30008091D4018E7F8093D4011092B3011092DE
:100F4000B20186EB91E09093B5018093B401E091FA
:100F5000C901F091CA0190818091CB01892B8083D6
:100F600081E0089580E00895CF92DF92EF92FF92A2
:100F7000CF93DF93C82F0E94810786EB91E00E94F8
:100F8000E902181619062CF486EB91E00E94010381
:100F9000F4CF60E886EB91E00E94990261E070E096
:100FA00080E090E00E945E046C2F86EB91E00E944E
:100FB00099026C2F86EB91E00E94990261E070E04B
:100FC00080E090E00E945E0486EB91E00E940103C5
:100FD0000E9498046B017C010E949804D0E086EB8B
:100FE00091E00E94E9021816190674F486EB91E06C
:100FF0000E940103ED2FF0E0E552FD4F8083DF5F9B
:101000000E9498046B017C010E949804DC01CB01D2
:101010008C199D09AE09BF0984369105A105B1055A
:1010200008F03FC0DD32D8F2EBEDF2E080E09191C4
:10103000890F93E0E730F907D1F79091DB029C37F5
:1010400081F59091DC02C9132CC0909106039D3765
:1010500041F590910703891324C0CC38F1F028F4AE
:10106000C938B1F0CA3879F01FC0CD3839F0CE3860
:10107000D9F48091DE02803EB9F013C08091DE0287
:10108000803D91F00EC08091DE02803A69F009C087
:101090008091DE02803941F004C08091DE02803C04
:1010A00019F080E090E002C08BED92E0DF91CF91EB
:1010B000FF90EF90DF90CF9008950E94B40721E059
:1010C000892B09F420E0822F08952091F1013091BD
:1010D000F2012115310589F0803278F4E82FF0E033
:1010E000EB52FE4F81A1F90194E0899FE00DF11DC3
:1010F000112440835183628373830895CF93DF93D8
:10110000CDB7DEB7A0970FB6F894DEBF0FBECDBF48
:10111000789484B5826084BD84B5816084BD85B5D2
:10112000826085BD85B5816085BD80916E008160DE
:1011300080936E0010928100809181008260809384
:101140008100809181008160809381008091800086
:101150008160809380008091B10084608093B100B1
:101160008091B00081608093B00080917A008460AB
:1011700080937A0080917A00826080937A008091D7
:101180007A008E7F80937A0080917A0080688093C5
:101190007A001092C10061E08DE00E94DB0368EBF1
:1011A0007BE080E090E00E945E0460E08AE00E94C4
:1011B000DB0361E08BE00E94DB031092D10110920F
:1011C000D0011092CF011092CE011092CD01109259
:1011D000CC0185E690E09093D3018093D201909169
:1011E000C201963108F058C021E230E03093CD01C1
:1011F0002093CC0123E630E03093CF012093CE0141
:1012000022E430E03093D1012093D0014091680076
:10121000983058F031E09E3008F430E021E0822F21
:1012200001C0880F3A95EAF701C084E0842B8093CF
:101230006800983038F09E3040F0963148F42CE643
:1012400030E008C02DE630E005C02BE630E002C0FB
:1012500020E030E03093CA012093C901983030F487
:1012600081E001C0880F9A95EAF70EC0292F30E07F
:101270009E3018F42850310902C02E50310981E007
:1012800001C0880F2A95EAF78093CB018091D201A3
:101290009091D3010197F1F70E9481076AE070E015
:1012A00080E090E00E945E040E94810780916601C8
:1012B00081114DC061E08DE00E948E038CE80E9498
:1012C0005D08882361F08CE8809366018091EE01CF
:1012D000811132C06CEF72E087E291E02BC08EE8A2
:1012E0000E945D08811128C08DE80E945D08882356
:1012F00061F08DE8809366018091EE0181111CC040
:1013000062EC70E080E391E015C08AE80E945D081D
:10131000811112C089E80E945D08882369F089E87C
:10132000809366018091EE01811106C068E670E04D
:1013300089E391E00E94CD0660E08DE00E948E037B
:1013400064EF71E080E090E00E945E04AFCF60E067
:101350008DE00E948E039CE088E10FB6F894A8957A
:10136000809360000FBE9093600004E610E0A4E656
:10137000AA2EA1E0BA2EBAE1CB2ED12CF0E28F2E0C
:1013800090906601892D0E94B4077C01009709F4B2
:101390004BC610925D0210925C0210925E02109297
:1013A0005F0210926002109261021092620210922B
:1013B000630210926402109265021092660210920B
:1013C0006702109268021092690210926A021092EB
:1013D0006B0210926C0210926D0210926E021092CB
:1013E0006F021092700210927102109272021092AB
:1013F000730210927402109275021092760210928B
:101400007702109278021092790210927A0210926A
:101410007B0210927C0210927D0210927E0210924A
:101420007F0210928002109281021092820210922A
:10143000830210928402109285021092860210920A
:101440008702109288021092890210928A021092EA
:101450008B0210928C0210928D0210928E021092CA
:101460008F021092900210929102109292021092AA
:10147000930210929402109295021092960210928A
:101480009702109298021092990210929A0210926A
:101490009B0210929C0210929D0210929E0210924A
:1014A0009F021092A0021092A1021092A20210922A
:1014B000A3021092A4021092A5021092A60210920A
:1014C000A7021092A8021092A9021092AB021092E9
:1014D000AA021092AC021092AD021092AE021092CB
:1014E000AF021092B0021092B2021092B1021092AA
:1014F000B3021092B4021092B5021092B702109289
:10150000B6021092B9021092B8021092BB02109269
:10151000BA021092BC021092BD021092BE0210924A
:10152000BF021092C0021092C1021092C202109229
:10153000C3021092C402DC0111968C918D3809F41B
:1015400097C28E3809F4A1C08A3811F00C94421366
:10155000F70185899689845F91409093AB028093CF
:10156000AA026789708D80E090E00E94ED1720E06C
:1015700030E64AEE56E40E94D8162AE037ED43E200
:101580005CE30E947B186093AC027093AD02809381
:10159000AE029093AF02D70117968D919C91189748
:1015A0009093B9028093B80253968D919C91549771
:1015B0009093BB028093BA0216968C911697880F6F
:1015C0008093BC021A962D913C911B97C901B801DA
:1015D0000E94E8183C01C90186199709B8010E94C8
:1015E000E8187727072E000C880B990B0E94EF173D
:1015F0001B012C01B30180E090E00E94ED1720E078
:1016000030E040E752E40E9445179B01AC01C20163
:10161000B1010E94D9166093BD027093BE028093FF
:10162000BF029093C002F70127853089C901B80134
:101630000E94E8187C01C9018E199F09B8010E9417
:10164000E8187727072E000C880B990B0E94EF17DC
:101650002B013C01B70180E090E00E94ED1720E0F3
:1016600030E040E752E40E9445179B01AC01C30102
:10167000B2010E94D9166093C1027093C202809396
:10168000C3029093C4020C944213F70120A131A12C
:101690007AE0772E729EC001739E900D1124909374
:1016A0005D0280935C02648D758D80E090E00E9405
:1016B000ED1760935E0270935F02809360029093D7
:1016C0006102D70154966D917C91559780E090E02E
:1016D0000E94ED176093620270936302809364022C
:1016E00090936502F7016689778980E090E00E9417
:1016F000ED1760936602709367028093680290937F
:101700006902D7015E966D917C915F9780E090E0D1
:101710000E94ED1760936A0270936B0280936C02D3
:1017200090936D02F701668170E080E090E00E9486
:10173000EF1720E030E048EC52E40E9445179B018F
:10174000AC010E94D9166093720270937302809369
:10175000740290937502D70117966C9170E080E047
:1017600090E00E94EF1720E030E048EC52E40E9445
:1017700045179B01AC010E94D916609376027093C5
:1017800077028093780290937902F701608570E088
:1017900080E090E00E94EF1720E030E048EC52E457
:1017A0000E9445179B01AC010E94D91660937A02F2
:1017B00070937B0280937C0290937D02D7011996EF
:1017C0006C9170E080E090E00E94EF1720E030E044
:1017D00048EC52E40E9445179B01AC010E94D916C7
:1017E00060937E0270937F028093800290938102C7
:1017F000F701628570E080E090E00E94EF1720E042
:1018000030E048EC52E40E9445179B01AC010E9475
:10181000D91660938202709383028093840290931E
:101820008502D7011B966C9170E080E090E00E94E9
:10183000EF1720E030E048EC52E40E9445179B018E
:10184000AC010E94D9166093860270938702809340
:10185000880290938902F701648570E080E090E04F
:101860000E94EF1720E030E048EC52E40E94451758
:101870009B01AC010E94D91660938A0270938B027F
:1018800080938C0290938D02D7011D966C9170E02D
:1018900080E090E00E94EF1720E030E048EC52E456
:1018A0000E9445179B01AC010E94D91660938E02DD
:1018B00070938F028093900290939102F701668556
:1018C00070E080E090E00E94EF1720E030E048EC0C
:1018D00052E40E9445179B01AC010E94D916609307
:1018E0009202709393028093940290939502D70191
:1018F0001F966C9170E080E090E00E94EF1720E06E
:1019000030E048EC52E40E9445179B01AC010E9474
:10191000D9166093960270939702809398029093E1
:101920009902F701608970E080E090E00E94EF1773
:1019300020E030E048EC52E40E9445179B01AC01E6
:101940000E94D91660939A0270939B0280939C0226
:1019500090939D02D70151966C9170E080E090E0E9
:101960000E94EF1720E030E048EC52E40E94451757
:101970009B01AC010E94D91660939E0270939F0256
:101980008093A0029093A102F701628970E080E049
:1019900090E00E94EF1720E030E048EC52E40E9413
:1019A00045179B01AC010E94D9166093A202709367
:1019B000A3028093A4029093A502D70153966C9141
:1019C00070E080E090E00E94EF1720E030E048EC0B
:1019D00052E40E9445179B01AC010E94D916609306
:1019E000A6027093A7028093A8029093A902F70120
:1019F000828D938D845F91409093AB028093AA0275
:101A000062A173A180E090E00E94ED1720E030E633
:101A10004AEE56E40E94D8162AE037ED43E25CE332
:101A20000E947B186093AC027093AD028093AE026B
:101A30009093AF02D70158968C9158978451809318
:101A4000B30259968C91599784518093B40296961B
:101A50008C9190E0382F2227822B932B789E900137
:101A6000799E300D11243093B7022093B6020AC636
:101A7000F70120A131A16AE0762E729EC001739E0B
:101A8000900D112490935D0280935C02648D758D9E
:101A900080E090E00E94ED1760935E0270935F0219
:101AA0008093600290936102D7011C966D917C91A6
:101AB0001D9780E090E00E94ED17609362027093A2
:101AC00063028093640290936502F70166857785CF
:101AD00080E090E00E94ED176093660270936702C9
:101AE0008093680290936902D7015E966D917C9114
:101AF0005F9780E090E00E94ED1760936A02709318
:101B00006B0280936C0290936D02F701668170E026
:101B100080E090E00E94EF1720E030E048EC52E4D3
:101B20000E9445179B01AC010E94D9166093720276
:101B3000709373028093740290937502D701179685
:101B40006C9170E080E090E00E94EF1720E030E0C0
:101B500048EC52E40E9445179B01AC010E94D91643
:101B60006093760270937702809378029093790263
:101B7000F701608570E080E090E00E94EF1720E0C0
:101B800030E048EC52E40E9445179B01AC010E94F2
:101B9000D91660937A0270937B0280937C029093B3
:101BA0007D02D70119966C9170E080E090E00E9470
:101BB000EF1720E030E048EC52E40E9445179B010B
:101BC000AC010E94D91660937E0270937F028093CD
:101BD000800290938102F701628570E080E090E0DE
:101BE0000E94EF1720E030E048EC52E40E944517D5
:101BF0009B01AC010E94D91660938202709383020C
:101C00008093840290938502D7011B966C9170E0BB
:101C100080E090E00E94EF1720E030E048EC52E4D2
:101C20000E9445179B01AC010E94D9166093860261
:101C3000709387028093880290938902F7018789C5
:101C4000908D845F91409093AB028093AA02618D46
:101C5000728D80E090E00E94ED1720E030E64AEEC1
:101C600056E40E94D8162AE037ED43E25CE30E9476
:101C70007B186093AC027093AD028093AE02909398
:101C8000AF02D70152968C9152978093B00253962F
:101C90008D919C9154979093B2028093B10250968B
:101CA0008C91509784518093B30251968C915197A7
:101CB00084518093B40255962D913C915697729E13
:101CC000C001739E900D11249093B7028093B602C9
:101CD000D9C44EE89412A8C140915C0250915D02B3
:101CE00060E070E081E00E94650860915E027091A2
:101CF0005F0280916002909161020E94B717AB0170
:101D0000BC0182E00E9465086091620270916302EA
:101D100080916402909165020E94B717AB01BC01EB
:101D200083E00E946508609166027091670280916D
:101D30006802909169020E94B717AB01BC0184E070
:101D40000E94650860916A0270916B0280916C023A
:101D500090916D020E94B717AB01BC0185E00E9413
:101D6000650820E030E048EC52E460917202709126
:101D7000730280917402909175020E947B180E94F8
:101D8000B717AB01BC0186E00E94650820E030E097
:101D900048EC52E46091760270917702809178026B
:101DA000909179020E947B180E94B717AB01BC0189
:101DB00087E00E94650820E030E048EC52E4609142
:101DC0007A0270917B0280917C0290917D020E9448
:101DD0007B180E94B717AB01BC0188E00E94650820
:101DE00020E030E048EC52E460917E0270917F0286
:101DF00080918002909181020E947B180E94B71707
:101E0000AB01BC0189E00E94650820E030E048ECAD
:101E100052E46091820270918302809184029091D9
:101E200085020E947B180E94B717AB01BC018AE0B3
:101E30000E94650820E030E048EC52E460918602A0
:101E40007091870280918802909189020E947B188C
:101E50000E94B717AB01BC018BE00E94650820E02F
:101E600030E048EC52E460918A0270918B028091DC
:101E70008C0290918D020E947B180E94B717AB01D3
:101E8000BC018CE00E94650820E030E048EC52E4A0
:101E900060918E0270918F028091900290919102D8
:101EA0000E947B180E94B717AB01BC018DE00E9415
:101EB000650820E030E048EC52E4609192027091B5
:101EC000930280919402909195020E947B180E9447
:101ED000B717AB01BC018EE00E94650820E030E03E
:101EE00048EC52E4609196027091970280919802BA
:101EF000909199020E947B180E94B717AB01BC0118
:101F00008FE00E94650820E030E048EC52E46091E8
:101F10009A0270919B0280919C0290919D020E9476
:101F20007B180E94B717AB01BC0180E10E946508D5
:101F300020E030E048EC52E460919E0270919F02F4
:101F40008091A0029091A1020E947B180E94B71775
:101F5000AB01BC0181E10E94650820E030E048EC63
:101F600052E46091A2027091A3028091A402909128
:101F7000A5020E947B180E94B717AB01BC0182E149
:101F80000E94650820E030E048EC52E46091A6022F
:101F90007091A7028091A8029091A9020E947B18DB
:101FA0000E94B717AB01BC0183E10E9465088091D4
:101FB000AA029091AB022AE0289FA001299F500D10
:101FC0001124052E000C660B770B84E10E94650836
:101FD0006091AC027091AD028091AE029091AF021F
:101FE0000E94B717AB01BC0185E10E9465084091D2
:101FF000B302042E000C550B660B770B86E10E9492
:1020000065084091B402042E000C550B660B770B4B
:1020100087E10E9465084091B6025091B70260E0E6
:1020200070E088E10E946508809116029091170285
:10203000DC01ED91FC910480F581E02D0995803B58
:1020400061F4809164019091650197FF1CC0019635
:1020500090936501809364011AC0803DA1F4809142
:10206000640190916501181619064CF4019790933C
:1020700065018093640181E08093000104C081E0E8
:102080008093590232C080910001882371F18091C0
:10209000640190916501892B31F5A4E4B1E0E8E396
:1020A000F2E080E09D91992321F0811102C090839C
:1020B00002C0808281E0319624E531E02A173B0797
:1020C00089F7A4E5B1E0E8E4F2E080E09D9199238E
:1020D00021F0811102C0908302C0808281E031969C
:1020E000AA16BB0699F7109200014090D5015090B6
:1020F000D6016090D7017090D80136E9430E511C8B
:10210000611C711C0E94980464157505860597056D
:1021100008F499C20E9498046093D5017093D60187
:102120008093D7019093D80180915902882351F16F
:102130008091160290911702DC01ED91FC910280D2
:10214000F381E02D40E06EE70995809116029091B1
:102150001702DC01ED91FC910280F381E02D41E05A
:1021600061E909958091160290911702DC01ED91C9
:10217000FC910280F381E02D41E061E3099510922A
:10218000590215C290905802992009F44CC0E92CCC
:10219000092C000CFF08C7010E94401A892B31F05E
:1021A000C7010E94471A982EF12C02C0FF24F39415
:1021B0008091160290911702DC01ED91FC91028052
:1021C000F381E02D40E06EE7099580911602909131
:1021D0001702DC01ED91FC910280F381E02D41E0DA
:1021E00062E009958091160290911702DC01ED9151
:1021F000FC910280F381E02DFF2011F063E201C029
:1022000062E241E009958091160290911702DC018B
:10221000ED91FC910280F381E02D41E0692D09955B
:1022200010925802C4C12091EF013091F0012115A4
:10223000310509F4BCC16091D90181E0860F80931A
:10224000D901611117C010921A02109220029090C9
:10225000EE01892D880F880F880F80932102492D68
:1022600050E06AED71E082E292E00E944F1ABAE01B
:102270009B0E42C160FD34C0669570E08091F30111
:102280009091F401861797075CF16150710940E065
:1022900050E0CE0101960E942F0610921A028B8107
:1022A000809320028C8DE8E08E9FC00111249D8DCB
:1022B000892B8093210280E05AE0952E980EE8E069
:1022C000F0E0EC0FFD1FE80FF11D9081992309F458
:1022D00013C18F5FE92DF0E0E85EFD4F9083ECCFF6
:1022E00080E480931A02E12CF12C48E0942E809136
:1022F000F5012091EF013091F001682F70E04091DD
:10230000F1015091F201F4E08F9F400D511D112415
:10231000CE0101960E942F068C819D81AE81BF81E6
:102320008F3F2FEF9207A207B20709F4C5C06B8158
:10233000492D50E03E8D71E0790D603168F0485EC6
:102340005D4F232F2F70FA01208322E0290DE72F04
:10235000F0E0E85EFD4F0BC0272FFA01E85EFD4F6D
:1023600040E1649FB0011124732F7F70672B60835D
:1023700068A170E03430B9F128F4332369F03130CA
:10238000E1F096C0383009F462C0393009F47CC0FD
:10239000353009F08DC040C0E22FF0E0E85EFD4F1F
:1023A000382F3F71B7FF02C080E801C080E0832B67
:1023B0009F8D892B808381E07CC0422F50E0FA0101
:1023C000E85EFD4F8083FA01E75EFD4F392F3F71D4
:1023D000B7FF02C080E801C080E0832B9F8D892B6E
:1023E000808382E066C0422F50E0FA01E85EFD4F34
:1023F0008083FA01E75EFD4F9083FA01E65EFD4FB0
:102400003A2F3F71B7FF02C080E801C080E0832B04
:102410009F8D892B808319C0422F50E0FA01E85E1E
:10242000FD4F8083FA01E75EFD4F9083FA01E65E7F
:10243000FD4F2D01772457FC7094672CB7FF02C025
:1024400080E801C080E0482A408283E032C0422F09
:1024500050E0FA01E85EFD4F8083FA01E75EFD4F30
:102460009083FA01E65EFD4FA083FA01E55EFD4F21
:102470003B2F3F71B7FF02C080E801C080E0832B93
:102480009F8D892B808312C0422F50E0FA01E85EB5
:10249000FD4F8083FA01E75EFD4F9083FA01E65E0F
:1024A000FD4FA083FA01E55EFD4FB08384E001C0DB
:1024B00080E0922E980E02C060E070E08091F501FD
:1024C0008F5F8093F5012091F3013091F40190E04A
:1024D0008217930714F01092F5018FEFE81AF80AAB
:1024E000E216F3064CF4892D90E09601261B370B7B
:1024F000821793070CF4FBCE8EE7809318028FE2CD
:102500008093190290911A028EEF890D892B809386
:102510001A0289E080931B0284EA80931C02809156
:102520005A0280931D0280915B0280931E021092DA
:102530001F02E92DF0E0AAE1B2E092E080E037E08E
:10254000991568F42D91822728E087FF03C0880F32
:10255000832701C0880F2150C1F79F5FF1CFE85E4C
:10256000FD4F80838091160290911702DC01ED915E
:10257000FC910280F381E02D40E06EE70995FF2495
:10258000F3949F14A0F08091160290911702AF2D42
:10259000B0E0A85EBD4FFC0120813181F9012281AC
:1025A000338141E06C91F9010995F394EACF809170
:1025B000160290911702DC01ED91FC910280F381EB
:1025C000E02D40E06EEF099580913802882331F1CB
:1025D00098E3E92E92E0F92E80911602909117026D
:1025E000F70161917F01DC01ED91FC910280F381A3
:1025F000E02D41E00995E8E5F2E0EE15FF0561F711
:102600008091160290911702DC01ED91FC910280FD
:10261000F381E02D40E06FEF099515C080E2E82ED0
:10262000F12C8091160290911702DC01ED91FC9142
:102630000280F381E02D41E060E00995B1E0EB1A02
:10264000F10879F7DDCFA89561E08DE00E948E0357
:102650006AE070E080E090E00E945E0460E08DE05F
:102660000E948E036AE070E080E090E00E945E04C9
:1026700080E090E0892B11F40C94C0090E940000C6
:102680000C94BE09ECE89E1239C040915C02509156
:102690005D0260E070E081E00E94650860915E028A
:1026A00070915F0280916002909161020E94B71761
:1026B000AB01BC0182E00E94650860916A027091E2
:1026C0006B0280916C0290916D020E94B717AB0172
:1026D000BC0183E00E9465084091B502042E000C05
:1026E000550B660B770B84E00E9465084091B6029B
:1026F0005091B70260E070E085E094CCE91508F4F1
:102700007CC0F9E89F121FC08091AA029091AB0291
:102710002AE0289FA001299F500D1124052E000CAE
:10272000660B770B81E00E9465086091AC027091A6
:10273000AD028091AE029091AF020E94B717AB013B
:10274000BC0182E06FCC2AE892126ECC8091AA0282
:102750009091AB022AE0289FA001299F500D1124DF
:10276000052E000C660B770B81E00E9465086091D6
:10277000AC027091AD028091AE029091AF020E94C6
:10278000B717AB01BC0182E00E9465084091B80216
:102790005091B90260E070E083E00E9465084091CA
:1027A000BA025091BB0260E070E084E00E946508CC
:1027B0004091BC0250E060E070E085E00E94650856
:1027C0006091BD027091BE028091BF029091C002E3
:1027D0000E94B717AB01BC0186E00E9465086091BA
:1027E000C1027091C2028091C3029091C4020E9402
:1027F000B717AB01BC0187E015CC3DE8931269CA5D
:1028000040915C0250915D0260E070E081E00E94C6
:10281000650860915E0270915F0280916002909104
:1028200061020E94B717AB01BC0182E00E946508FB
:1028300060916202709163028091640290916502DE
:102840000E94B717AB01BC0183E00E94650860914C
:1028500066027091670280916802909169020E94FD
:10286000B717AB01BC0184E00E94650860916A0261
:1028700070916B0280916C0290916D020E94B7176B
:10288000AB01BC0185E00E94650820E030E048EC27
:1028900052E460917202709173028091740290917F
:1028A00075020E947B180E94B717AB01BC0186E03D
:1028B0000E94650820E030E048EC52E46091760226
:1028C0007091770280917802909179020E947B1832
:1028D0000E94B717AB01BC0187E00E94650820E0A9
:1028E00030E048EC52E460917A0270917B02809172
:1028F0007C0290917D020E947B180E94B717AB0169
:10290000BC0188E00E94650820E030E048EC52E419
:1029100060917E0270917F0280918002909181028D
:102920000E947B180E94B717AB01BC0189E00E948E
:10293000650820E030E048EC52E46091820270913A
:10294000830280918402909185020E947B180E94EC
:10295000B717AB01BC018AE00E94650820E030E0B7
:1029600048EC52E46091860270918702809188025F
:10297000909189020E947B180E94B717AB01BC019D
:102980008BE00E9465088091AA029091AB022AE038
:10299000289FA001299F500D1124052E000C660BC5
:1029A000770B8CE00E9465086091AC027091AD02DB
:1029B0008091AE029091AF020E94B717AB01BC01AB
:1029C0008DE00E9465084091B00250E060E070E048
:1029D0008EE00E9465084091B1025091B20260E021
:1029E00070E08FE00E9465084091B302042E000C55
:1029F000550B660B770B80E10E9465084091B4028D
:102A0000042E000C550B660B770B81E10E946508C4
:102A10004091B6025091B70260E070E082E10E94FE
:102A2000650840915C0250915D0260E070E081E0D9
:102A30000E94650860915E0270915F028091600261
:102A4000909161020E94B717AB01BC0182E00E9425
:102A5000650860916A0270916B0280916C0290919E
:102A60006D020E94B717AB01BC0185E00E946508AA
:102A70004091B302042E000C550B660B770B80E1DE
:102A80000E9465084091B6025091B70260E070E084
:102A900082E1C8CA89E191E09093B7018093B601C1
:102AA0008091B4019091B501865B914071F4E09101
:102AB000C901F091CA0190818091CB018095892351
:102AC00080831092B5011092B40108951092B9015B
:102AD0001092B80188EE93E0A0E0B0E08093BA01D4
:102AE0009093BB01A093BC01B093BD0189E191E03B
:102AF0009093B7018093B6011092CD011092CC0152
:102B00001092CF011092CE011092D1011092D001FB
:102B10001092D3011092D2016091D4016E7F6D7F2B
:102B20006093D4016695617081E068278BE00E9414
:102B30008E0361E08BE00E94DB03E1E0F4E0E491CE
:102B4000E093C601EDEEF3E0E491F0E0EE0FFF1F3D
:102B5000E852FC4F859194919093C8018093C701EE
:102B600060E08AE00E94DB038091D40181FD04C013
:102B700061E08AE00E948E038AE08093C201E0E077
:102B8000F4E0E491E093C301ECEEF3E0E491F0E0D3
:102B9000EE0FFF1FE253FC4F859194919093C50176
:102BA0008093C40110925D0210925C0210925E024A
:102BB00010925F0210926002109261021092620203
:102BC00010926302109264021092650210926602E3
:102BD00010926702109268021092690210926A02C3
:102BE00010926B0210926C0210926D0210926E02A3
:102BF00010926F0210927002109271021092720283
:102C00001092730210927402109275021092760262
:102C100010927702109278021092790210927A0242
:102C200010927B0210927C0210927D0210927E0222
:102C300010927F0210928002109281021092820202
:102C400010928302109284021092850210928602E2
:102C500010928702109288021092890210928A02C2
:102C600010928B0210928C0210928D0210928E02A2
:102C700010928F0210929002109291021092920282
:102C80001092930210929402109295021092960262
:102C900010929702109298021092990210929A0242
:102CA00010929B0210929C0210929D0210929E0222
:102CB00010929F021092A0021092A1021092A20202
:102CC0001092A3021092A4021092A5021092A602E2
:102CD0001092A7021092A8021092A9021092AB02C1
:102CE0001092AA021092AC021092AD021092AE02A3
:102CF0001092AF021092B0021092B2021092B10282
:102D00001092B3021092B4021092B5021092B70260
:102D10001092B6021092B9021092B8021092BB0241
:102D20001092BA021092BC021092BD021092BE0222
:102D30001092BF021092C0021092C1021092C20201
:102D40001092C3021092C4021092D5011092D601C3
:102D50001092D7011092D8011092D9011092EE0171
:102D60001092F0011092EF011092F2011092F10115
:102D70001092F4011092F3011092F50110921702D3
:102D800010921602109258021092590286E7809310
:102D90005A0282E380935B021092DA010895FB01EC
:102DA000DC0102C005900D9241505040D8F70895C3
:102DB0005058BB27AA270E94F0160C9441180E9475
:102DC000331838F00E943A1820F039F49F3F19F474
:102DD00026F40C9430180EF4E095E7FB0C942A18B6
:102DE000E92F0E94521858F3BA1762077307840735
:102DF000950720F079F4A6F50C9474180EF4E0957C
:102E00000B2EBA2FA02D0B01B90190010C01CA01A4
:102E1000A0011124FF27591B99F0593F50F4503E4F
:102E200068F11A16F040A22F232F342F4427585F41
:102E3000F3CF469537952795A795F0405395C9F759
:102E40007EF41F16BA0B620B730B840BBAF0915011
:102E5000A1F0FF0FBB1F661F771F881FC2F70EC0B0
:102E6000BA0F621F731F841F48F487957795679583
:102E7000B795F7959E3F08F0B0CF9395880F08F06F
:102E80009927EE0F9795879508950E9459170C94EE
:102E900041180E943A1858F00E94331840F029F463
:102EA0005F3F29F00C942A1851110C9475180C945A
:102EB00030180E94521868F39923B1F3552391F307
:102EC000951B550BBB27AA2762177307840738F099
:102ED0009F5F5F4F220F331F441FAA1FA9F335D0F6
:102EE0000E2E3AF0E0E832D091505040E695001CAA
:102EF000CAF72BD0FE2F29D0660F771F881FBB1F64
:102F0000261737074807AB07B0E809F0BB0B802D41
:102F1000BF01FF2793585F4F3AF09E3F510578F06D
:102F20000C942A180C9475185F3FE4F3983ED4F380
:102F3000869577956795B795F7959F5FC9F7880F41
:102F4000911D9695879597F90895E1E0660F771F93
:102F5000881FBB1F621773078407BA0720F0621B24
:102F6000730B840BBA0BEE1F88F7E09508950E944F
:102F7000BE176894B1110C94751808950E945A18E0
:102F800088F09F5798F0B92F9927B751B0F0E1F02A
:102F9000660F771F881F991F1AF0BA95C9F714C0DA
:102FA000B13091F00E947418B1E008950C94741837
:102FB000672F782F8827B85F39F0B93FCCF3869513
:102FC00077956795B395D9F73EF490958095709570
:102FD00061957F4F8F4F9F4F0895E89409C097FBED
:102FE0003EF490958095709561957F4F8F4F9F4FE0
:102FF0009923A9F0F92F96E9BB279395F695879524
:1030000077956795B795F111F8CFFAF4BB0F11F4E6
:1030100060FF1BC06F5F7F4F8F4F9F4F16C088238D
:1030200011F096E911C0772321F09EE8872F762FC3
:1030300005C0662371F096E8862F70E060E02AF004
:103040009A95660F771F881FDAF7880F96958795F0
:1030500097F9089597F99F6780E870E060E0089518
:103060009FEF80EC089500240A94161617061806A0
:103070000906089500240A9412161306140605067C
:103080000895092E0394000C11F4882352F0BB0F0D
:1030900040F4BF2B11F460FF04C06F5F7F4F8F4F70
:1030A0009F4F089557FD9058440F551F59F05F3FAB
:1030B00071F04795880F97FB991F61F09F3F79F05A
:1030C00087950895121613061406551FF2CF4695DC
:1030D000F1DF08C0161617061806991FF1CF86955E
:1030E0007105610508940895E894BB276627772742
:1030F000CB0197F908950E948E180C9441180E94F4
:10310000331838F00E943A1820F0952311F00C94EF
:103110002A180C94301811240C9475180E94521817
:1031200070F3959FC1F3950F50E0551F629FF0011A
:10313000729FBB27F00DB11D639FAA27F00DB11D33
:10314000AA1F649F6627B00DA11D661F829F2227BC
:10315000B00DA11D621F739FB00DA11D621F839F43
:10316000A00D611D221F749F3327A00D611D231F19
:10317000849F600D211D822F762F6A2F11249F5767
:1031800050409AF0F1F088234AF0EE0FFF1FBB1F6A
:10319000661F771F881F91505040A9F79E3F510529
:1031A00080F00C942A180C9475185F3FE4F3983E55
:1031B000D4F3869577956795B795F795E7959F5FD3
:1031C000C1F7FE2B880F911D9695879597F9089565
:1031D000AA1BBB1B51E107C0AA1FBB1FA617B7073D
:1031E00010F0A61BB70B881F991F5A95A9F7809559
:1031F0009095BC01CD01089597FB072E16F400941D
:1032000007D077FD09D00E94E81807FC05D03EF4EE
:10321000909581959F4F0895709561957F4F089582
:10322000EE0FFF1F0590F491E02D09940F931F936B
:10323000CF93DF938230910510F482E090E0E0912B
:103240000A03F0910B0320E030E0A0E0B0E03097FB
:1032500019F1408151810281138148175907C8F043
:103260008417950769F4109731F012960C93129712
:1032700013961C9327C000930A0310930B0322C0DC
:103280002115310519F04217530718F49A01BD01B1
:10329000EF01DF01F801DBCF21153105F9F0281B23
:1032A000390B2430310580F48A819B8161157105C9
:1032B00021F0FB019383828304C090930B038093DE
:1032C0000A03FE01329644C0FE01E20FF31F819310
:1032D000919322503109398328833AC02091080301
:1032E00030910903232B41F4209103013091040113
:1032F00030930903209308032091010130910201CA
:103300002115310541F42DB73EB74091050150918B
:103310000601241B350BE0910803F0910903E21725
:10332000F307A0F42E1B3F0B2817390778F0AC01E8
:103330004E5F5F4F2417350748F04E0F5F1F5093C5
:103340000903409308038193919302C0E0E0F0E009
:10335000CF01DF91CF911F910F910895CF93DF930C
:10336000009709F481C0FC01329713821282A09168
:103370000A03B0910B03109781F420813181820FF1
:10338000931F20910803309109032817390751F53D
:10339000F0930903E093080367C0ED0120E030E0FB
:1033A000CE17DF0740F44A815B819E01411551052C
:1033B000F1F0EA01F5CFD383C28340815181840FBC
:1033C000951FC817D90759F488819981840F951FD3
:1033D0000296918380838A819B81938382832115C6
:1033E000310529F4F0930B03E0930A033DC0E90192
:1033F000FB83EA8349915991C40FD51FEC17FD0750
:1034000061F480819181840F951F0296E90199836F
:103410008883828193819B838A83E0E0F0E0129627
:103420008D919C911397009719F0FD01DC01F7CF66
:103430008D919C9111979D012E5F3F4F820F931F9D
:1034400020910803309109032817390769F4309750
:1034500029F410920B0310920A0302C01382128205
:10346000B0930903A0930803DF91CF91089581E001
:1034700090E0F8940C94711A85FD0C946E1A806299
:1034800091110C946E1A81568A51D8F708959111B2
:10349000089581568A5108F4805285580895FB0199
:1034A000DC0102C001900D9241505040D8F70895C0
:1034B000DC0101C06D9341505040E0F70895FB01DD
:1034C000DC014150504048F001900D920020C9F7B6
:1034D00001C01D9241505040E0F708959927882778
:1034E000089512E0C6E0D2E004C0FE010E94101967
:0C34F0002196C730D107C9F7F894FFCF30
:1034FC000100000C038000000000002C0426036374
:10350C0003220322030000000099023102230398D6
:10351C0002E90201038002486F54542045534300D2
:10352C00486F54542047414D00486F545420566105
:10353C0072696F003D20486F5454324475706C654D
:10354C0078203D00202056657273696F6E20302EF6
:04355C0037202000F4
:00000001FF
